:020000040000FA
:060000000215AF020A9791
:03002B0002126757
:03004B0002133964
:030053000209CBD4
:03005B0002045943
:030063000213483D
:10008300020A2B01FF01010503010F10FEFF1520DA
:10009300152015201520C51EBF1E15208E39000002
:1000A3000000C43800000000FF000000FF0001FF53
:1000B300FF0101004906000000E803C206E80364EB
:1000C300006400B8010202000800000502070401F1
:1000D300051E02051E020A0A0103B80B02803E0137
:1000E30002E8030A050001FFFF01140020FD0002DE
:1000F30006FFFFFF00FE0D5EC05EE10201228301E9
:1001030020830D1F0F0000008D2F932F992F9F2FFA
:10011300A52FAB2FB12FB72FBF2DC52DCB2DD12D94
:100123000000BD2FC32F000000000000BD2CC32C16
:10013300C92CAB2CB12CB72CD52C992C9F2CA52CCE
:100143000000DB2CE12CE72CED2CF32CCF2C010051
:10015300000000000000476C6F62616C5363656EC2
:100163006500000000001F00000000000000000008
:10017300000000000000000000000000000000007C
:10018300000000000000FE6B617D60011900002388
:100193000F000B04010201020713810000000C048D
:1001A300010002020000000000000B5EC00002021A
:1001B30000FF2F05300B30113017301D30000023A6
:1001C30030000000000000000000000100B0423BCE
:1001D300AAB83F0000003F8C906339AA0CA33A00F1
:1001E300941E3C8042633DCFFE753E1572313F0045
:1001F30000803FF304353F8096184B2292D43EDDB6
:100203009B2A3F04000040FFFF7F7FFFFF7FFF012A
:100213000080341872313F1215FB60461215CE6010
:100223003DE9687008F618F618F618F62274806728
:10023300F712024E090909748067F7221215CE607E
:100243001D1215FB7005191919801A1213E5701F79
:1002530012140FC37003E6673319191940071818EE
:10026300182208080874FFF618F618F618F6221272
:10027300140F601712163A702192F0121644701977
:10028300501720F014080808090909E7F61819E7B8
:10029300F61819E7F61819E7F62212164460E6E88D
:1002A30069701F0808E62480F608E436F618547FC0
:1002B300B47F0CE654806007F6E418F618F62218AB
:1002C3001822E9C6CC08C6CD08C6CE08C6CFC0E002
:1002D300E8C0E0EAC0E0EBC0E009E9F809E7FA09A1
:1002E300E7FBE6F918E6F8C3EC98ED99EE9AEBC252
:1002F300E7F5F0EFC2E795F0500E600CEBCFFBEAA9
:10030300CEFAE9CDF9E8CCF8EAA2E7D2E7FAEB3383
:10031300FB13F5F0EEA2E7D2E7FEEF33FFC5F013D0
:10032300A2E730E601B313C5F0C3C0E0C0F07F001D
:10033300C39BFB605E9418600F401D14601AD0E0ED
:1003430023F9D0E0F80204208AF0E9486003D2F0F0
:10035300E4AFF0FAF9F8803BEB30E40D89F0EA60A2
:1003630003D2F0E4AFF0F9CAF8EB30E30D88F0EF15
:100373006002D2F0AFF0E4CAC9F8EB54076014FB93
:10038300C3EA13FAE913F9E813F8EF135002D2E0C2
:10039300FFDBEDD0E0C0E030E739C3E49FFFF5F0C9
:1003A300EC98FC42F0ED99FD42F0EE9AFE42F0D05B
:1003B300E0F9D0E0F8E5F0607AE923F9EE20E742CE
:1003C300D8028067C3EF33FFEC33FCED33FDEE332C
:1003D300FE80EAEC28FCED39FDEE3AFED0E023F98D
:1003E300D0E0F84002801BC3EE13FEED13FDEC13C7
:1003F300FCEF135002D2E0FF08B800067F7F74FFC2
:10040300802EEF3350178CF020F00260100CBC00EC
:100413000C0DBD00080EBE000408E860DFE933E8F8
:1004230013FFEE2313FE4F4D4C8008E95480FFE485
:10043300FEFDFCEE33EF33F47004FCFD7E80D0E070
:10044300FBD0E0FAD0E0F8D0E0CFC618CEC618CD86
:10045300C618CCC6F922C0E074EF120DB6E5D8A2D7
:10046300E140030205B4C2D990076EE06401700E47
:10047300D2879007BEE412065C7402020656E0645B
:1004830002704C90077178081215EC90829A7808E4
:100493001214FFE5084509450A450B6004D287801D
:1004A30002C28790077178081215EC74017808125C
:1004B30012C690077178081215BF9007BEE004F0CA
:1004C3006420600302065790076E7403020656E029
:1004D30064037036D28790076FE09007BF601EE019
:1004E30004F06404600302065790076CE4F090077D
:1004F30070F09007BD12065C7404020656E004F027
:10050300641D6003020657020599E06404701E909F
:1005130007BFE0700675CD5475CE4304F0640860E0
:1005230003020657E41206607406020656E06406E8
:10053300701B9007BFE0700375CD7C04F0641760F7
:1005430003020657E41206607407020656E06407C6
:10055300700D53CBEF43CB0475CE00C2DA804EE06F
:10056300640870169007BFE004F0640C6003020691
:1005730057E41206607409020656E064097020907D
:1005830007BFE0700875CD6875CE00C2DA04F06469
:10059300166003020657E41206607405020656E06D
:1005A3006405600302065753CBEF43CB04E4020612
:1005B30056A2E2400302065743FD02D281C2DA90FB
:1005C300076EE06404700B75CE009007707401022F
:1005D3000656E06406703075CDE69007BFE4F0433D
:1005E300CB04C2D9A2934004D2F08002C2F0A2F09D
:1005F30033900777F0900775E4F0A3F09007BD04FC
:100603001206607408804CE0640870489007BDE0EF
:10061300C39412503FE0F508750900A2934004D239
:10062300F08002C2F074027808121512747525085E
:10063300F874073509F9A2F0E43388828983A3A308
:10064300F09007BFE088828983F0E5CFA3F090079D
:10065300BDE004F07F04020E6DF09007BFF0900739
:100663006E221215CE7004181818221215FB700D85
:1006730074FFF61819F61819F61819F622E75480BC
:1006830066F6121644700F12163A70F014F608F656
:1006930008F608F680D112163A700CF608F60876BA
:1006A3008008E6447F80EC121412700C1213E86089
:1006B300BFE65480F6E480BB1213E87005191919DC
:1006C30080A5E869700C763F18768018F618F6E86E
:1006D300F922E6CDC0E018ECC0E0E633CD33CDD34C
:1006E30013F6E719FCE7191933CC33C3947F400E93
:1006F300CD9D502408E65480F6E418F6800FF404E8
:100703003D14501408E6447FF6187680E418F61872
:10071300F6D0E0FCD0E0FD22CCD313CCFD18E4C628
:10072300CBC0E018E4C6CAC0E00808ED08C633E64B
:1007330013F618E433C675F003C3CA97CA09CB97F7
:10074300CB199C40047D08802EBD000302080E16C1
:10075300B6FF050606081618C3CA33CACB33CB3314
:10076300CA27CA09CB37CB193CC37D08803E187D05
:100773000820E75CC633C6CA33CACB33CB33DDF1BB
:10078300D5F0EB30E77BCA97CA09CB974ACB199CC4
:10079300406F4B7025E620E0218066187D08C3CAB0
:1007A30097CA09CB97CB199CD3C633C6CA33CACBD6
:1007B30033CB3350C9DDE7D5F0E1D3E4C636C60801
:1007C300C636C608C636C608C636C61818188031D7
:1007D300C3CA97CA09CB97CB199CB34097C633C6F4
:1007E300CA33CACB33CB33DD34D5F02EC6A2E0C631
:1007F30040C8CA27CA09CB37194A70BECB3CB4805C
:10080300B90808E63308E633601F181818D0E0FA71
:10081300D0E0FBD0E0FCD0E0FD22187D08CA27CA57
:1008230009CB37CB193CD3808013F618E4B67F117C
:10083300F618B6FF0EF618C60470D2080876808044
:10084300CAF618F618F680C5001215CE604F1215B9
:10085300FB6012E7548066F61213E5701112163A24
:10086300703B090909F4F618F618F618F622121463
:100873000F701512164408080860EAE6447FF6185C
:10088300768018E4F618F622121644601612163A09
:100893007012E4F608F608F608E65480F60909092A
:1008A30018181822EAC0E0EBC0E0ECC0E0EDC0E0AD
:1008B300E687F0A4FBACF008E687F0A42CFCE43553
:1008C300F0FA1809E687F0A42C4B60027401CA35CC
:1008D300F0FCE433FB09E687F0D2F7A42CCB35F028
:1008E300FC1908E687F0A42BCC35F0FBE433FD08B4
:1008F30019E687F0D2E7A42C4ACB35F0CD3400FCBF
:1009030009E687F0D2E7A42DCC35F0FDE433FA09EC
:1009130018E687F0D2F7A42CCD35F0CA3400FC08D2
:10092300E687F0D2E7D2F7A42ACC35F07A7E20E727
:100933000B0ACB33CBCD33CDCC33CC33CB335014A9
:100943007004ED30E00ED2F1E4CD3DCDCC3CCC3B98
:100953005005DA05C2F1EB547FC63308E63392F053
:10096300FBE73309E733C39A502D2B70190C0D4C59
:100973004D70151806E608C333700D20F10AA2F076
:1009830013F6E418800B4024E4F630F00276801866
:10099300F618F618F68024D33B14501074FFA2F017
:1009A30013F6187680E418F618F6800FA2F013F603
:1009B30018E63303F618ECF618EDF6D0E0FDD0E0B8
:1009C300FCD0E0FBD0E0FA22C0E074F1120DB6A235
:1009D300AFE433FED2AFE5A7FFE5A1F5085FF50964
:1009E3007410550960061228BB75A1EF74085509E8
:1009F30060081228C175A1F78024E508A2E092F0EF
:100A0300EFA2E082F05017906198E0F890087CE044
:100A1300C398A2D265D0335002E8F075A1FEEEA2CE
:100A2300E092AF7F02020E6DC0E074F2120DB6A227
:100A3300AFE433FED2AF9061A4E0F8759B00E5917B
:100A430058540860087591F71229158023E59158C9
:100A5300541060087591EF12291B8014E591A2E0F0
:100A630092F0E8A2E082F05007E0C2E0F0122A5FC1
:100A73009061A3E0F8E5E9585404600E122A357535
:100A8300E9FB906193E0A2E640F2EEA2E092AF7F31
:100A930001020E6DC0E074F2120DB6A2AFE433FE94
:100AA300D2AF9061A5E0F8E5BF585404600675BF66
:100AB300FB122A7780D4C3E498F8E499F9120AFA6E
:100AC3008026C3E49AFAE49BFBE920E7E9120AFAD9
:100AD300E498F8E499F922C3E498F8E499F9120A3E
:100AE300FAE498F8E499F9C3E49AFAE49BFB22EB5D
:100AF30020E7CFE920E7E0B90010BB0008E88AF05F
:100B030084F8AAF022E4FBC8FA22EB70227B10C817
:100B130033C8C933C9335007C39AC3DBF280069A7B
:100B230050012ADBEAC833F4C8C933F4C9FA227581
:100B3300F008E4C833C8C933C933C99AC99B500400
:100B4300C92AC93BD5F0ECFBC833F4C8E4C9FA227F
:100B5300120B9320F01430E72B74FFFCFBFA747F25
:100B63008022E4FCFBFA7480801AB48008BC00F293
:100B7300BB00EF800F50EBF9E4C39AFAE49BFBE46C
:100B83009CFCE499C6CC18C6CB18C6CA18C6F92271
:100B9300E4C9C608CAC608CBC6D3330308CCC633D8
:100BA30092F0C3947F402E94184019C9B90704CA20
:100BB300CBCC225025C309CA33CACB33CBCC33CCDD
:100BC30033D9F422F4600DC9CCC313CB13CBCA13AE
:100BD300CAD9F6CC22E4FCFBFA2214FCFBFA220865
:100BE3000808EAC0E0EBC0E086F0E7A4FA1809863B
:100BF300F0E7A42AFA180986F0E7A42AFA18098666
:100C0300F0E7A42AFA1986F0E7A4FBE5F02AFA191B
:100C13000886F0E7A42BFBE5F03AFA190886F0E71B
:100C2300A42BFBE5F03AFA18180986F0E7A4C5F0FF
:100C33002BFBE43AFA1908E7C5F0C6A426F6E5F05B
:100C43003BFBE43AFA1886F0E7A4F6E5F00826F64B
:100C5300E43B08F6E43A08F6D0E0FBD0E0FA2208D9
:100C63000808E630E711121477120C7A080808C650
:100C73004480C618181822181818E9799EC608CA9D
:100C8300C608CBC608CCC6C370207996CACBCC7035
:100C930019798ECBCC70137986CC700EF9802ACA61
:100CA30033CACB33CBCC33CC331930E7F2CCCBCAFA
:100CB3003350147004EA30E00DE4CA3ACACB3BCB9C
:100CC300CC3CCC500209C3E913C6CC182313C6CBC2
:100CD30018C6CA18C6F922E4CFC0E0E4CEC0E0E4E7
:100CE300CDC0E0E4CCC0E075F020C3E633F608E6FF
:100CF30033F608E633F608E633F6181818EC33FC37
:100D0300ED33FDEE33FEEF33FFC3EC9709ED9709A7
:100D1300EE9709EF97191919400FFFEC97FC09EDAE
:100D230097FD09EE97FE191906D5F0BEECF709ED0C
:100D3300F709EEF709EFF7191919D0E0FCD0E0FD38
:100D4300D0E0FED0E0FF222518C582C0E0E51934CB
:100D5300FFC583C0E0E518C3958224F810AF08856A
:100D630083198582188008858319858218D2AFCEAE
:100D7300F0A3E520F0A37808E608F0A3DEFAEFF08D
:100D8300A3E58124FAF8E608F0A3E608F0A3E60851
:100D9300F0A30808E608F0A3E608F0A3158115817F
:100DA300D0E0FED0E0F8158115811581E8C0E0EEB2
:100DB300C0E022C0D02518C582C0E0E51934FFC5C4
:100DC30083C0E0E518C3958224F310AF0885831927
:100DD3008582188008858319858218D2AFC8F0A34D
:100DE300E9F0A3EAF0A3EBF0A37908E709F0A3D8AD
:100DF300FAECF0A3EDF0A3EEF0A3EFF0A3D0E0F054
:100E0300A3D0E0F0A3D0E0F0A3E520F0A3E5F0F059
:100E1300A32212162FB90003020E57E4900401789F
:100E23009B790C8002F0A3D8FCD9FA900F9BAA827D
:100E3300AB83900086789579028015E493A3AC8206
:100E4300AD838A828B83F0A3AA82AB838C828D834A
:100E5300D8E9D9E77582447583A774061212E5753C
:100E630082BD75833274001212E585198385188259
:100E7300E0C0E0A3E0F9A3E0FAA3E0FBA37808E075
:100E8300F608A3DFFAE0FCA3E0FDA3E0FEA3E0FF86
:100E9300A3E0C0E0A3E0C0E0A3E0F5D0A3E0F52029
:100EA300A3E0A3F5F010AF088583198582188008A5
:100EB300858319858218D2AFD082D083D0E0F8D051
:100EC300E03212147A181818120CDA12155E191976
:100ED300192212155E191919080808E6181818209E
:100EE300E7E0120CDA12147A18181822090909E734
:100EF30019191920E7DC080808E618181820E70371
:100F0300020CDA12147A181818120CDA12147A185E
:100F1300181812155E1919192275F0108E1A8F1BE5
:100F230085821F85831E851882851983E0CEA3E001
:100F3300CF851F82851E83EBC9EAC8EDCBECCAC3FC
:100F4300E833C8E933C9EA33CAEB33CBC3EA9EF5C6
:100F53001DEB9FF51CB35004AB1CAA1DEC33CCED69
:100F630033CDD5F0DAAE1AAF1B221215CE601C12A8
:100F730015FB6017121644700712163A7001D3223C
:100F8300C0D012163A7006D0D0B322C32233D0D0C9
:100F9300501430E0F6C3E7960809E7960809E79688
:100FA3000809E796B32220E0D5E6970809E69708F3
:100FB30009E6970809E697B322D083D082ECC0E014
:100FC300EDC0E0E493A3FCE493A3FDED4C600D12AC
:100FD30010E0EC24FFFCED34FFFD80EFE493A3FC71
:100FE300E493A3FDED4C600D1211A9EC24FFFCED7D
:100FF30034FFFD80EFD0E0FDD0E0FCE493A3C0E03C
:10100300E493C0E0221215CE601B1215FB6016128A
:101013001644700712163A600CB322C0D012163A67
:101023007005D0D022C32233D0D0501330E0EBC3AD
:10103300E7960809E7960809E7960809E796222044
:10104300E0E4E6970809E6970809E6970809E697B2
:1010530022851983851882E0A3FEE0A3F520780892
:10106300E0A3F608DFFAE0A3FFE0A3C0E0E0A3C03B
:10107300E0E0A3C0E0E0A3C0E0E0A3C0E010AF085D
:101083008582188583198008858218858319D2AFD4
:10109300D083D0820212EBD083D082E9C0E0E49304
:1010A300A3C386F0C5F095F0F908E493A386F0C5D1
:1010B300F095F0700BE493A3C3994005E904800213
:1010C300A3E475F002A42582F582E5F03583F58368
:1010D300D0E0F9E493A3C0E0E493C0E022C0E0C30E
:1010E300E49396087401939618400FE4936670088E
:1010F30008740193661870007019A3A3C3E4939650
:10110300087401939618A3A3400DD0E0D0E0D0E07B
:10111300020FF8A3A3A3A3A3A3D0E0227404800423
:1011230074028000CCC0E0EDC0E0E518C39CCCADF8
:101133001950011D10AF068C188D1980068C188D5F
:1011430019D2AF121246D0E0FDD0E0FC2274028027
:1011530000CCC0E0EDC0E0E518C39CCCAD19500154
:101163001D10AF068C188D1980068C188D19D2AFFF
:10117300121224D0E0FDD0E0FC221215CE6025121D
:1011830015FB6020121644700302163A080808E79C
:101193006670101819E766700A1819E76670041864
:1011A30019E76622F422C0E0C0F088F0E493667089
:1011B300080874019366187000A8F0A3A3700BD0FD
:1011C300F0D0E0D0E0D0E0020FF8A3A3D0F0D0E05D
:1011D30022D083D082CCC0E0E493A36006121288AD
:1011E3001470FAE493A360061213CF1470FAD0E0DC
:1011F300FCE493A3C0E0E493C0E022C008C3E096FC
:10120300F50808A3E096420808A3E096420808A35D
:10121300E0964208A2D265D033E5087001D3D00826
:1012230022CAC0E0E493A3C582CCC582C583CDC5E1
:1012330083F0A3C582CCC582C583CDC583DAE5D04F
:10124300E0CA22CAC0E0E0A3C582CCC582C583CD73
:10125300C583F0A3C582CCC582C583CDC583DAE639
:10126300D0E0CA22C0E0C0D0E8C0E0E9C0E0E5A811
:10127300D2AFC2C7A2E7A2E792AFD0E0F9D0E0F8BD
:10128300D0D0D0E032C0E0E493A3D39C5010E493D9
:10129300A3C39C400AD0E0D0E0D0E00211F1A3A3A5
:1012A300A3D0E022C008C3E096F50808A3E0964265
:1012B3000808A3E096420808A3E09645087001D306
:1012C300D008227009080808226016181818C6C327
:1012D30033C608C633C608C633C608C633C6D5E008
:1012E300EA22C09FF59FE473D09F22D083D082C0AF
:1012F3009FE493C0E0740193C0E0740293F59F22CE
:101303007404800A74038006740280027401C0E0CE
:10131300F40412131ED0E012160A222518F58210C7
:10132300AF08F518400215198008F5184002151981
:10133300D2AF85198322C0E074F2120DB6122807CA
:101343007F01020E6DC0E074F2120DB612280D80FB
:10135300EFBB0102E722C082C08389828A83BB007C
:1013630003E08002E493D083D08222C0D0251810FA
:10137300AF08F518500205198008F5185002051931
:10138300D2AFD0D0226016080808C6C313C618C649
:1013930013C618C613C618C613C6D5E0EA22C3E09F
:1013A300C696F608A3E0C696F608A3E0C696F60826
:1013B300A3E0C696F622251810AF08F518400215CB
:1013C300198008F51840021519D2AF22C0E0E49342
:1013D300A36C7009D0E0D0E0D0E00211F1A3A3D058
:1013E300E022181818E6084608700AE608C33370A6
:1013F30005E633F4220822E76670100809E76670F1
:101403000A0809E76670040809E76622191919E74B
:10141300094709700AE709C3337005E733F4220962
:1014230022E066701008A3E066700A08A3E0667005
:101433000408A3E06622C3E09608A3E09608A3E0AD
:101443009608A3E096A2D265D03322C3E796080993
:10145300E7960809E7960809E796A2D265D03322F2
:10146300C3E49396087401939608740293960874E0
:1014730003939622181818E4C396F608E496F60820
:10148300E496F608E496F622C3E096F008A3E09605
:10149300F008A3E096F008A3E096F022C3E697F6DF
:1014A3000809E697F60809E697F60809E697F6228B
:1014B300E026F608A3E036F608A3E036F608A3E034
:1014C30036F622E026F008A3E036F008A3E036F073
:1014D30008A3E036F022E627F60809E637F60809FE
:1014E300E637F60809E637F622E657F60809E6571F
:1014F300F60809E657F60809E657F622E056F60815
:10150300A3E056F608A3E056F608A3E056F62270C9
:101513000422600D18C6C333C608C633C6D5E0F42B
:101523001822E056F008A3E056F008A3E056F008AE
:10153300A3E056F022E046F608A3E046F608A3E04F
:1015430046F608A3E046F622E647F60809E647F61C
:101553000809E647F60809E647F622E4C397F709C0
:10156300E497F709E497F709E497F722600D08C6B3
:10157300A2E713C618C613C6D5E0F322C6F4C608FD
:10158300C6F4C608C6F4C608C6F4C622C3E0960865
:10159300A3E09608A3E09608A3E09622C3E7960883
:1015A30009E7960809E7960809E7962275D00075BA
:1015B300814075180175190400020E15E6F008A3A1
:1015C300E6F008A3E6F008A3E6F022E6084608C31F
:1015D300134608336002E633F422600C08C6C313D3
:1015E300C618C613C6D5E0F422E0F608A3E0F60851
:1015F300A3E0F608A3E0F622E7094709C313470966
:10160300336002E733F422CAC0E0E6F0A308DAFA53
:10161300D0E0FA22EAF0A3EBF0A3ECF0A3EDF02282
:10162300E0FAA3E0FBA3E0FCA3E0FD22E5C754F846
:101633004401F5C7790122E7C3331947194719470D
:1016430022E6C333184618461846222518F582E4C5
:101653003519F58322C2AF75D69F020000221212FC
:10166300EE1DBD021212EE5ABD021212EEBEBD02F3
:101673001212EE2ABE021212EE46BE021212EE7AC7
:10168300BE021212EEC5BE021212EEC2BF02121247
:10169300EE79C0021212EE08C3021212EE4DC4021A
:1016A3001212EEFAC4021212EE8AC5021212EEAE42
:1016B300C5021212EE60C6021212EE2DC7021212FA
:1016C300EEF6C8021212EE34C9021212EEABC902D0
:1016D3001212EE0ACB021212EEB7CB021212EEF87E
:1016E300CB021212EE10CC021212EEC2CC02121274
:1016F300EE88CF021212EE1CD1021212EE40D1027A
:101703001212EE5ED1021212EE47D2021212EE0450
:10171300D6021212EE22D6021212EE008003121229
:10172300EE1280031212EE6A80031212EED08003CF
:101733001212EE5A81031212EE1D82031212EE658B
:1017430082031212EE9182031212EED1820312125D
:10175300EE3883031212EEAD83031212EEC6830337
:101763001212EEEC83031212EE0B84031212EE49F3
:1017730084031212EE9E84031212EEC58403121226
:10178300EE2285031212EEE985031212EE8286031E
:101793001212EE0587031212EECD87031212EE1614
:1017A30088031212EE3288031212EE6488031212B7
:1017B300EE128A031212EEDE8A031212EE038B0379
:1017C3001212EE308B031212EE5B8B031212EE6ACF
:1017D3008B031212EE758B031212EE208C0312127E
:1017E300EE878C031212EE0A8D031212EE128D0392
:1017F3001212EE1C8D031212EEA48D031212EE0CC4
:101803008E031212EE4B8E031212EE8C9003121201
:10181300EE7391031212EEA691031212EE68920375
:101823001212EE2493031212EE5693031212EEBC1D
:1018330093031212EECD93031212EE40940312128D
:10184300EED894031212EE3195031212EE0F9603A3
:101853001212EE3496031212EE5296031212EE6532
:1018630096031212EEBD96031212EE45970312125F
:10187300EE8697031212EE9397031212EE9C9703D0
:101883001212EEA799031212EEFB9A031212EE0B39
:101893009B031212EE449C031212EEAB9C03121232
:1018A300EEED9C031212EE299D031212EE519E03DC
:1018B3001212EEC5A0031212EED9A0031212EEE328
:1018C300A0031212EEEDA0031212EEF7A003121200
:1018D300EE10A1031212EE1AA1031212EE24A103B9
:1018E3001212EE2EA1031212EE56A1031212EEA44F
:1018F300A1031212EEAFA1031212EED3A10312122F
:10190300EEF7A1031212EE67A2031212EEB3A203C3
:101913001212EECFA2031212EE35A3031212EE7CC3
:10192300A3031212EEC8A3031212EE33A40312127E
:10193300EEE3A4031212EEB6A6031212EE24A703DB
:101943001212EE61A8031212EE87A8031212EEFA26
:10195300A9031212EE9DAD031212EE97AF031212FA
:10196300EE77B1031212EE10B2031212EE44B40377
:101973001212EEE7B4031212EE39B5031212EEBDE2
:10198300B5031212EED5B5031212EE12B8031212FA
:10199300EE57B9031212EEB6B9031212EE4FBA03A1
:1019A3001212EE21BC031212EE63BD031212EE8279
:1019B300BD031212EED7BD031212EED8BE031212EC
:1019C300EE00BF031212EE63BF031212EE5BC003FD
:1019D3001212EED7C0031212EE01C2031212EE6C02
:1019E300C2031212EEAAC3031212EE0CC6031212A2
:1019F300EE3DC6031212EEE8C8031212EE3AC90313
:101A03001212EEF8C9031212EEB4CA031212EE1840
:101A1300CB031212EED9CB031212EE7BCC031212BC
:101A2300EEE0CC031212EE1FCD031212EE50CD03E3
:101A33001212EEBACE031212EE3E83011212EE76AA
:101A430083011212EE4F86011212EE9B86011212CF
:101A5300EE8587011212EEE987011212EE49890120
:101A63001212EE288C011212EE6B8D011212EE652A
:101A730098011212EEFA98011212EEF79B0112125C
:101A8300EEFC9C011212EE5F9D011212EEAA9E0162
:101A93001212EE2AA1011212EE27A3011212EEB4C2
:101AA300A3011212EE90A4011212EE28A501121244
:101AB300EE32A5011212EE60A5011212EE15A60177
:101AC3001212EEF3A6011212EECAA7011212EEE0F1
:101AD300A7011212EE41A8011212EE6AA801121216
:101AE300EE97A8011212EEC8AA011212EEA7AB01DB
:101AF3001212EEEBAB011212EE56AC011212EE15FE
:101B0300AD011212EE47AD011212EE8EAD011212AB
:101B1300EEC1AD011212EE16AE011212EE6BAE0162
:101B23001212EE70AE011212EEC4AE011212EE0CDE
:101B3300AF011212EE10B0011212EE75B0011212C3
:101B4300EED1B0011212EE42B1011212EE12B40143
:101B53001212EE14B5011212EE81B6011212EE70DA
:101B6300B9011212EE17BA011212EE65BC0112127C
:101B7300EE08BD011212EE46BD011212EE28BF019E
:101B83001212EE3BBF011212EE44BF011212EE4DD0
:101B9300BF011212EE62BF011212EE81BF011212D7
:101BA300EE5BC1011212EEB0C1011212EEBAC10115
:101BB3001212EEC4C1011212EE15C2011212EE6925
:101BC300C2011212EE85C3011212EEDCC30112121E
:101BD300EE3EC5011212EE8FC5011212EE3AC60196
:101BE3001212EE58C7011212EE03C8011212EE1EB2
:101BF300C9011212EE45CA011212EE48CB011212AC
:101C0300EE5FCB011212EE9CCB011212EEA6CB01BA
:101C13001212EEB0CB011212EEBBCB011212EED9AF
:101C2300CB011212EE1BCC011212EE78CC01121270
:101C3300EE9DCC011212EEB7CC011212EE36CD019D
:101C43001212EE73CD011212EEA8CE011212EEFAA9
:101C5300CE011212EE14D0011212EE3BD001121279
:101C6300EECFD0011212EE4AD1011212EE9AD20136
:101C73001212EECDD3011212EE7FD4011212EE4AEC
:101C8300D5011212EEEFD5011212EE59D60112123E
:101C9300EE0ED7011212EE62D7011212EEC0D70177
:101CA3001212EE8BD8011212EEAED8011212EE6DA3
:101CB300D9011212EE91D9011212EEB3D901121207
:101CC300EE14DA011212EE54DC011212EE3EDD01C3
:101CD3001212EEE9DD011212EE0EE0011212EE5CB9
:101CE300E0011212EE9FE0011212EEF7E001121270
:101CF300EE55E1011212EE82E1011212EEA6E101AC
:101D03001212EED9E1011212EE03E2011212EE4AAF
:101D1300E2011212EE9FE2011212EEFBE201121235
:101D2300EEF8E3011212EE5CE5011212EE9AE50100
:101D33001212EEC3E5011212EE52E6011212EE9CEC
:101D4300E6011212EEC0E6011212EE10E7011212C2
:101D5300EE2BE7011212EEE2E7011212EE1BE8018D
:101D63001212EE73E8011212EEC9E8011212EECD5F
:101D7300EB011212EE00EC011212EEBEEC01121294
:101D8300EEC6ED011212EE4FEE011212EEF7F20360
:101D93001212EE2FF3031212EE50F3031212EE920D
:101DA300F3031212EEF4F3031212EEFEF303121214
:101DB300EE0EF4031212EE45F4031212EE81F40355
:101DC3001212EE43F8031212EE04FA031212EE2675
:101DD300FC031212EEE5FC031212EEB2FD03121223
:101DE300EE3A3D001212EE7D3D001212EE3D3E0032
:101DF3001212EE5C3F001212EE8340001212EE3E0E
:101E030042001212EEB142001212EE7C4300121293
:101E1300EE8D44001212EEF444001212EE3045002F
:101E23001212EE8F45001212EEC845001212EE1D7B
:101E330046001212EEA646001212EE4B4700121293
:101E4300EE1C48001212EEF648001212EE80490012
:101E53001212EEA649001212EED349001212EE0D31
:101E63004A001212EE0D4B001212EE1D4B0012121D
:101E7300EE6D4B001212EE7A4B001212EE8F4B00F6
:101E83001212EE984B001212EEF24B001212EE54A5
:101E93004C001212EE9E4C001212EEB94C001212BC
:101EA300EEE04C001212EEFD4C001212EE094D0052
:101EB3001212EEB24E001212EECB4E001212EE517F
:101EC3004F001212EE644F001212EE764F00121200
:101ED300EE2250001212EE8D51001212EE44530006
:101EE3001212EECA53001212EECC53001212EE3449
:101EF30054001212EE5254001212EEE85400121261
:101F0300EE2555001212EE2855001212EE5355001D
:101F13001212EEB055001212EED455001212EEF268
:101F230055001212EE4056001212EE99570012128B
:101F3300EEF157001212EE3E58001212EEC5580091
:101F43001212EEED58001212EE2359001212EE3265
:101F530059001212EE9059001212EE015A00121299
:101F6300EE3E5A001212EE795A001212EEA45A00F3
:101F73001212EEBE5A001212EED85A001212EEAC32
:101F83005B001212EEB65B001212EEF25B0012124D
:101F9300EE025C001212EE625C001212EE765C003E
:101FA3001212EE805D001212EE935D001212EEA883
:101FB3005D001212EE4D5E001212EEC95E001212A7
:101FC300EE6C5F001212EE785F001212EEBE60003C
:101FD3001212EEDA60001212EE3261001212EE6E8D
:101FE30061001212EE8861001212EEEA6100121211
:101FF300EE8962001212EED462001212EE20650026
:102003001212EEC765001212EE6366001212EE8919
:1020130068001212EEA168001212EEA468001212F8
:10202300EEB068001212EEC468001212EECC680023
:102033001212EE0C69001212EE056A001212EE88FB
:102043006A001212EE0A6B001212EE846B00121277
:10205300EE566C001212EE786C001212EE146D0044
:102063001212EE206D001212EE4B6D001212EE4EA4
:102073006D001212EEBD6D001212EE206F001212EF
:10208300EE3770001212EEC270001212EEFF7100F2
:102093001212EED172001212EE0273001212EE2E21
:1020A30073001212EE3773001212EE6673001212EF
:1020B300EE1674001212EED074001212EE44750084
:1020C3001212EEE075001212EE6876001212EE9E06
:1020D30076001212EEE376001212EE2CB505121200
:1020E300EE7FB5051212EEBCB5051212EE0CB60565
:1020F3001212EE90B6051212EEA2B8051212EE8E6F
:10210300BA051212EE0BBE051212EE3BBE051212F9
:10211300EE59BE051212EEC3BE051212EEF3BE0552
:102123001212EE26BF051212EE5DBF051212EEBDAE
:10213300BF051212EE09C0051212EE85C005121278
:10214300EEACC0051212EEE0C0051212EE40C2055D
:102153001212EE5CC2051212EEA1C2051212EE2893
:10216300C3051212EE71C3051212EE02C405121258
:10217300EEE8C4051212EE3BC5051212EEA0C5052A
:102183001212EE21C6051212EE77C6051212EEC028
:10219300C6051212EE5DC7051212EE54C8051212DF
:1021A300EEA2C8051212EEF0C8051212EE12C9050E
:1021B3001212EEADC9051212EE46CA051212EE98BE
:1021C300F5051212EEE4F5051212EE52F60512129F
:1021D300EE73F6051212EE13F7051212EE1CF70555
:1021E3001212EE69F7051212EE92F7051212EE9C27
:1021F300F7051212EE08F8051212EE9AF8051212FC
:10220300EED6F8051212EE11F9051212EE6DF9056C
:102213001212EEA3F9051212EE22FA051212EE6C57
:10222300FA051212EEADFA051212EEE4FA051212D5
:10223300EEF6FA051212EE08FB051212EE27FB0565
:102243001212EE30FB051212EEF8FB051212EE38F5
:10225300FC051212EE61FC051212EEA1B706121272
:10226300EEE4B8061212EE3DB1061212EE73B10699
:102273001212EEBEB1061212EE09B3061212EE836B
:10228300E1041212EEB7E2041212EEF3E2041212A8
:10229300EEABE4041212EEE5E4041212EE5EE70480
:1022A3001212EE9EE7041212EE32E9041212EED27B
:1022B300E9041212EE34EA041212EEC1EA04121215
:1022C300EEF9EA041212EE39EB041212EECAEC0430
:1022D3001212EE72EE041212EECFF0041212EEFDA1
:1022E300F0041212EE29F1041212EE32F10412126A
:1022F300EEB0F1041212EE0DF5041212EE4FBF060A
:102303001212EE65BF061212EEDABD061212EE18B5
:102313008F061212EE2D8F061212EEE08F061212A6
:10232300EE2090061212EE3990061212EE74900609
:102333001212EEC190061212EEF390061212EE354F
:1023430091061212EE4093061212EE04FF041212CB
:10235300EE3AFF041212EE56FF041212EE98FF0437
:102363001212EEA8FF041212EEB2FF041212EECA0A
:10237300FF041212EE1E9D041212EE769D04121239
:10238300EE1A9E041212EE2C9F041212EE0EA004FB
:102393001212EEE6A0041212EEFBA0041212EED407
:1023A300AD021212EE9EA1041212EEFBA104121250
:1023B300EE0EA2041212EE5DA2041212EE75A20436
:1023C3001212EE2AA5041212EEC9A5041212EE008F
:1023D300A6041212EE49A6041212EE37A804121232
:1023E300EE96A8041212EE0CA9041212EEF4A9043C
:1023F3001212EE2DAA041212EE4CAA041212EE9738
:10240300AA041212EEADAA041212EEBAAA04121210
:10241300EEF3AA041212EE05AB041212EEFDAB04A6
:102423001212EE60AC041212EEAEAC041212EED431
:10243300BC021212EE23B0041212EE4AB0041212BE
:10244300EED5B0041212EE5FB1041212EE27B204FD
:102453001212EE61B2041212EECFB2041212EE7F28
:10246300B3041212EEA9B3041212EEB3B3041212A0
:10247300EEBDB3041212EED9B3041212EE36B40455
:102483001212EE6FB4041212EE8BB4041212EEB7F2
:10249300B4041212EEF2B4041212EE0DB5041212C9
:1024A300EE57B5041212EE6AB5041212EE85B504A6
:1024B3001212EEB5B5041212EED2B5041212EE1BCF
:1024C300B6041212EE51B6041212EE54B7041212ED
:1024D300EE85BE061212EE9DBE061212EE187700AE
:1024E3001212EE6777001212EE2679001212EEFF37
:1024F3007A001212EE437B001212EE967C00121247
:10250300EEE17D001212EE037E001212EE4D7E000C
:102513001212EECF7E001212EEB9A3051212EEDCF8
:10252300A3051212EECDA4051212EE55A505121243
:10253300EEB3A5051212EEFAA5051212EE73A60567
:102543001212EE00A7051212EE79A7051212EEBAC7
:10255300A7051212EE0AAC051212EE81AE05121295
:10256300EE51AF051212EE7AAF051212EEB8B105B5
:102573001212EE46B2051212EE6AB3051212EE25DE
:10258300B4051212EE98B4051212EE90EE01121277
:10259300EE45EF011212EECAEF011212EE65F001E1
:1025A3001212EEEAF0011212EECAF3011212EE72E7
:1025B300F4011212EECDF4011212EE90F601121292
:1025C300EE3FF7011212EE72F8011212EE81F901D9
:1025D3001212EE25FA011212EE28FB011212EE007E
:1025E30080041212EE6F80041212EEBD80041212E8
:1025F300EE0581041212EE5B81041212EEB5810422
:102603001212EEF681041212EE8182041212EED639
:1026130082041212EE5584041212EECB84041212B9
:10262300EEFA85041212EE2686041212EE368704A1
:102633001212EE4787041212EE5D87041212EEE8BF
:1026430087041212EE0B88041212EED888041212B9
:10265300EEFA88041212EE1189041212EE3789047D
:102663001212EE5989041212EE498A041212EEABC9
:102673008A041212EE568C041212EEB48C04121257
:10268300EECB8C041212EE1F8E041212EEC48E04D3
:102693001212EE0A8F041212EE4E8F041212EEB8CB
:1026A3008F041212EE7890041212EE589204121252
:1026B300EE6C93041212EECF94041212EE469604BB
:1026C3001212EEE297041212EEF097041212EE09C0
:1026D30099041212EEB699041212EE099A04121218
:1026E300EE1E9A041212EE039B041212EE049C04D3
:1026F3001212EE699C041212EE79AC061212EEB4B9
:10270300AC061212EE73AD061212EED9AD0612121A
:10271300EE4FAE061212EED2A7061212EE51A90622
:102723001212EE0BE6051212EEA0E7051212EE4DA1
:10273300E8051212EE0AEA051212EE58EA05121221
:10274300EECDFF041212EEDEFF041212EE4FBC06B2
:102753001212EE5DBC061212EEA0BF061212EE6F4D
:10276300FF011212EE7FFF011212EE91FF0112120E
:10277300EEF7FF011212EE4BBB061212EED0BB06B0
:102783001212EE36BC061212EE0BBD061212EE1C2E
:10279300BD061212EE36BD061212EE41BD0612122E
:1027A300EE8DBF061212EE9DBF061212EEB1BF06EA
:1027B3001212EEB4BF061212EEB7BF061212EEBA31
:1027C300BF061212EEBDBF061212EE17BF0612129B
:1027D300EE4D93061212EE6294061212EEA09406C8
:1027E3001212EE1D95061212EE4795061212EED442
:1027F30095061212EEFE95061212EE4C9606121272
:10280300EE8B96061212EEA896061212EE2C97067F
:102813001212EEEB91051212EE1293051212EE4A0A
:1028230099051212EE3F9B051212EE9B9B051212A5
:10283300EE919C051212EE789D051212EECC9E05C8
:102843001212EEF4A0051212EE07A1051212EE2ADF
:10285300A3051212EE0080061212EE288006121251
:10286300EE4583061212EE8483061212EEC6830629
:102873001212EEDA83061212EEF383061212EE0B35
:1028830085061212EEBD85061212EED785061212C8
:10289300EE60FE031212EE84FE031212EE9DFE039F
:1028A3001212EEDCFE031212EE0FFF031212EE3FC2
:1028B300FF031212EEA7FF031212EEAAFF03121276
:1028C300EEB4FF031212EEC1FF031212EE8EFC01EF
:1028D3001212EEB6FC011212EEF7FC011212EE1503
:1028E300FD011212EE30FD011212EE98FD011212DB
:1028F300EEA4FD011212EE03FE011212EE2FFE01F1
:102903001212EE3EFE011212EE62FE011212EE23CD
:10291300FF011212EE30FF011212EE41FF011212FB
:10292300EEC1FF021212EED9FF021212EE35860635
:102933001212EEA287061212EEA887061212EEBF3B
:1029430087061212EEE087061212EEF687061212BF
:10295300EE0A88061212EE8988061212EEEE880637
:102963001212EE8489061212EE5D8A061212EE6DC1
:102973008A061212EE7C8A061212EE62FF0512120A
:10298300EE86FF051212EEAEFF051212EED6FF051C
:102993001212EE70B3061212EE97B3061212EEB5D0
:1029A300B3061212EE27B4061212EE8FFC051212B2
:1029B300EEA8FC051212EEBFFC051212EEC8FC05D0
:1029C3001212EEE6FC051212EEF0FC051212EEFAFC
:1029D300FC051212EE0DFD051212EE94FD05121206
:1029E300EE09FE051212EE37FE051212EE88FE0501
:1029F3001212EED4FE051212EEEFFE051212EEF9DC
:102A0300FE051212EE0AFF051212EE50FF05121216
:102A1300EE34BE061212EE95CA051212EEC1CA05B5
:102A23001212EEDFCA051212EEF2CA051212EE0DF1
:102A3300CB051212EE6CCB051212EE9ACB051212D5
:102A4300EE8ACF051212EEDCD0051212EE0ED1057E
:102A53001212EE7AD1051212EEDFD2051212EE0730
:102A6300D3051212EE1CD3051212EE2CD30512124B
:102A7300EE6CD3051212EEB8D3051212EEC8D305CD
:102A83001212EEF5B8061212EE05B9061212EE2373
:102A9300B9061212EE3EB9061212EE65B90612120B
:102AA300EE86B9061212EEA0B9061212EED8B906D6
:102AB3001212EEFBB9061212EED3BE061212EE6F1D
:102AC300A3061212EE76A3061212EECCA40612127D
:102AD300EEFCA4061212EE2CA5061212EE5FA5065A
:102AE3001212EE71A5061212EEADA5061212EE1326
:102AF300A6061212EE4FA6061212EE96A6061212A2
:102B0300EEC3A6061212EEEFA6061212EEE5AE060D
:102B13001212EE08AF061212EE26B0061212EE0FD4
:102B2300B1061212EE12B1061212EEFF7E0012125D
:102B3300EE5E7F001212EE9C7F001212EEDD7F002C
:102B43001212EEDEED051212EEF4ED051212EEA8EE
:102B5300EE051212EECAEF051212EEA0F0051212E4
:102B6300EE3EF1051212EE7DF1051212EE8DF10526
:102B73001212EEB4F1051212EE06F2051212EE91E4
:102B8300F3051212EE96F3051212EEB8F3051212C4
:102B9300EE2DCF031212EE39CF031212EE96CF03AE
:102BA3001212EEAECF031212EE54D0031212EE65E0
:102BB300D0031212EED4D0031212EE6DD10312120F
:102BC300EEB0D1031212EE38D2031212EE64D40324
:102BD3001212EE78D6031212EE8CD7031212EE43C2
:102BE300D8031212EE43DD031212EE30DE0312128B
:102BF300EEC2DE031212EEE7DE031212EE8CDF03E7
:102C03001212EEA9DF031212EECADF031212EE3123
:102C1300E0031212EE67E0031212EEC6E103121292
:102C2300EE6CE2031212EEB7E2031212EE36E30386
:102C33001212EEEBE3031212EE54E4031212EEB897
:102C4300E4031212EE4CE5031212EEB9E50312127D
:102C5300EEF5E5031212EE69E6031212EE8EE703B8
:102C63001212EEF3E8031212EEA0E9031212EED8E9
:102C7300E9031212EE9BEB031212EE92ED03121212
:102C8300EED1EE031212EE0080051212EE828005E1
:102C93001212EE3F82051212EE3A83051212EE98DB
:102CA30084051212EED785051212EE56870512120D
:102CB300EE0E88051212EEDE88051212EE918905DA
:102CC3001212EEE38A051212EE0D8C051212EEF0CB
:102CD3008C051212EE158D051212EE748D0512126B
:102CE300EE738E051212EE6B8F051212EE779005BE
:102CF3001212EEFD90051212EE40D6021212EED71A
:102D0300D6021212EE3BD7021212EE51D802121261
:102D1300EED0D8021212EE0ADA021212EEB9DA0279
:102D23001212EE92DC021212EEA6DD021212EE680D
:102D3300DE021212EE91DE021212EEEADE0212122D
:102D4300EEA9DF021212EEE1E0021212EE8AE202B3
:102D53001212EE26E3021212EE4DE7021212EE4DAC
:102D6300E9021212EEE4E9021212EE3DEA02121235
:102D7300EE8EEA021212EE05EB021212EE8EEB0257
:102D83001212EEAEEB021212EE0BEC021212EEE393
:102D9300F5021212EEFFF7021212EE62F90212129C
:102DA300EEDCFA021212EEBEFB021212EE8AFC02F3
:102DB3001212EE7197061212EEC697061212EE71F8
:102DC30098061212EE6099061212EE4E9A0612122D
:102DD300EE5A9B061212EE09DD051212EEA7DD056F
:102DE3001212EEE9DD051212EE9BDE051212EE62FF
:102DF300E3051212EE66E4051212EE28E50512123F
:102E0300EE1DCD041212EEA8CD041212EEF7CE047D
:102E13001212EE43D0041212EEFDD0041212EEB2DF
:102E2300D1041212EE2DD2041212EE62D204121247
:102E3300EE60D3041212EE2ED4041212EE37D50430
:102E43001212EE2ED6041212EE9BD7041212EE8645
:102E5300DA041212EE7FDB041212EE71DC0412129A
:102E6300EE41DD041212EEA5DE041212EE93E0042D
:102E73001212EEA2B8041212EEDDB8041212EE0D15
:102E8300BA041212EE58BA041212EEC0BA041212A5
:102E9300EE21BB041212EE72BB041212EEF6BB0457
:102EA3001212EE32BC041212EE59BC041212EEC11D
:102EB300BC041212EE8BBD041212EEC5BE04121234
:102EC300EEEABE041212EE3ABF041212EE67BF041A
:102ED3001212EE10C0041212EE53C0041212EE7A54
:102EE300C1041212EEBCC1041212EE07C204121284
:102EF300EE3DC2041212EEA7C4041212EEADC504D5
:102F03001212EEDBC5041212EE2BC6041212EE4DA2
:102F1300C6041212EE91C6041212EEACC6041212CB
:102F2300EED0C6041212EEFDC6041212EE0EC80451
:102F33001212EE75C8041212EE92CA041212EEDBDC
:102F4300CA041212EE05CB041212EEAACB0412121B
:102F5300EEE8CB041212EE07CD041212EEF2A9062C
:102F63001212EE0FAA061212EE22AA061212EE6037
:102F7300AA061212EE92F5041212EE3BF604121296
:102F8300EEE9F7041212EE22F8041212EEEDF80441
:102F93001212EEF0F8041212EE03F9041212EE4EBE
:102FA300F9041212EE51F9041212EE96F9041212F8
:102FB300EE34FA041212EE5CFA041212EE1FFB0452
:102FC3001212EEF6FB041212EEF6D3051212EE32D3
:102FD300D4051212EE41D4051212EE88D405121252
:102FE300EE92D4051212EE9CD4051212EEB1D60560
:102FF3001212EE5FD7051212EEAAD7051212EE01D6
:10300300D8051212EE73D8051212EEBDD8051212AE
:10301300EE3DD9051212EE6DD9051212EEF1D90566
:103023001212EEABDA051212EE10DB051212EE07E6
:10303300DC051212EEF3DC051212EEFFDC051212B0
:10304300EE859B061212EEA39B061212EEE79B0679
:103053001212EE0D9C061212EE349C061212EE4C66
:103063009C061212EE649C061212EE7C9C0612124F
:10307300EE1E9D061212EE5C9D061212EE709D0668
:103083001212EE859E061212EEA09E061212EEA9F1
:103093009E061212EEB29E061212EEBB9E0612128C
:1030A300EEC59E061212EE359F061212EEAD8A068B
:1030B3001212EE9B8E061212EEA98E061212EEAEBD
:1030C3008E061212EE6FBF061212EEE1FC0212120E
:1030D300EE2DBA061212EE79BD061212EE90B50667
:1030E3001212EECBFF031212EE7D9F061212EEAA0E
:1030F300AD021212EE6CAD021212EE16AD021212F6
:10310300EE1AAC021212EE73AA021212EE43AA02D4
:103113001212EE17AA021212EEF3A9021212EEDF36
:10312300A9021212EE05A9021212EE36A802121219
:10313300EE0EA6021212EE8CBC021212EECFBB02EE
:103143001212EEE3A5021212EE88A5021212EE3E4F
:10315300BB021212EE2FBB021212EEF3A3021212E3
:10316300EE7AA3021212EE2CA3021212EE57A2025F
:103173001212EE1EA2021212EECDA1021212EE5292
:10318300A0021212EED49F021212EE0A9F02121232
:10319300EEF29D021212EE969D021212EE709D0245
:1031A3001212EEAC9C021212EEEF9A021212EE8B86
:1031B3009A021212EE5C9A021212EE599A0212123B
:1031C300EE2C99021212EE1398021212EEC8960216
:1031D3001212EEEF95021212EE6B95021212EE72BC
:1031E30094021212EECF93021212EE1693021212EF
:1031F300EE36B8021212EE53B5021212EE09B40201
:103203001212EE45B3021212EE7BB1021212EED489
:1032130092021212EE3C92021212EEFB9102121271
:10322300EE9E91021212EE0CAF021212EE6B91029D
:103233001212EEFF90021212EECA90021212EE6BFD
:1032430090021212EEABAE021212EEBDAD041212D8
:10325300EE3A90021212EEEE8C021212EE238C0260
:103263001212EED88B021212EECC8B021212EE2B3C
:103273008B021212EEEF89021212EE34870212123F
:10328300EEC084021212EE7E84021212EE48830212
:103293001212EEDE82021212EE0C82021212EE6C97
:1032A30080021212EE0080021212EE32800212121B
:1032B300EE52AE021212EE48A10400000080FBE4BD
:1032C30073FFBFF6BDEEBBE5B9DDB7D4B5CCB3C470
:1032D300B1BBAFB3ADAAABA2A999A791A589A380AE
:1032E300A1789F6F9D679B5E9956974E9545933D39
:1032F30091348F2C8D248B1B8913870A850283F9C4
:1033030080F17EE97CE07AD878CF76C774BE72B656
:1033130070AE6EA56C9D6A94688C6683647B6273E1
:10332300606A5E625C595A51584956405438522F6C
:1033330050274E1E4C164A0E480546FD43F441ECF9
:103343003FE33DDB3BD339CA37C235B933B131A88B
:103353002FA02D982B8F2987277E2576236E216515
:103363001F5D1D541B4C19431733135D138713B291
:1033730013DC13061431145B148614B014DA140529
:10338300152F155A158415AE15D91503162E165873
:10339300168216AD16D71602172C1756178117ABC0
:1033A30017D61700182A1855187F18AA18D418FE0C
:1033B30018291953197E19A819D219FD19271A5258
:1033C3001A7C1AA61AD11AFB1A261B501B7A1BA5A4
:1033D3001BCF1BFA1B241C4E1C791CA31CCE1CF8F0
:1033E3001C221D4D1D771DA21DCC1DF61D211E4B3C
:1033F3001E761EA01ECA1EF51E1F1F4A1F741F9E87
:103403001FC91FF31F1E20482072209D20C720F2D2
:1034130020472125230325E126BF289D2A7B2C59FC
:103423002E37301532F333D135AF378D396B3B49F6
:103433003D273F0541E342C1449F467D485B4A39EE
:103443004C174EF54FD351B1538F556D574B5929E7
:103453005B075DE55EC360A1627F645D663B6819DF
:103463006AF76BD56DB36F927170734E752C770AD3
:1034730079E87AC67CA47E828060823E841C86FAC8
:1034830087D889B68B948D728F50912E930C95EAC1
:1034930096C898A69A849C629E40A01EA2FCA3DABA
:1034A300A5B8A796A974AB52AD30AF0EB1ECB2CAB2
:1034B300B4A8B686B864BA42BC20BEC9BE72BFFF08
:1034C300BFFF3FA7414F43F7449F464748EF499704
:1034D3004B3F4DE74E8F503752DF5387552F57D70A
:1034E300587F5A275CD05D785F2061C8627064188A
:1034F30066C0676869106BB86C606E0870B071580D
:10350300730075A8765078F979A17B497DF17E998E
:10351300804182E98391853987E188898A318CD911
:103523008D818F2991D19279942296CA9772991A93
:103533009BC29C6A9E12A0BAA162A30AA5B2A65A14
:10354300A802AAAAAB52ADFAAEA2B04BB2F3B39B98
:10355300B543B7EBB893BA3BBCE3BD8BBF33C1DB19
:10356300C283C42BC6D3C77BC9CCCC7ACA28C8D6DE
:10357300C585C333C1E1BE90BC3EBAECB79BB54928
:10358300B3F7B0A6AE54AC02AAB1A75FA50DA3BC16
:10359300A06A9E189CC79975972395D29280902E06
:1035A3008EDD8B8B893987E88496824480F37DA1F5
:1035B3007B4F79FE76AC745A720970B76D656B14E4
:1035C30069C26670641F62CD5F7B5D2A5BD85886D3
:1035D300563554E351914F404DEE4A9C484B46F9C2
:1035E30043A741563F043DB23A61380F36BD336CB1
:1035F300311A2FC82C772A2528D32582233021DEA0
:103603001E8D1C3B1AE91797154613F410A20E5191
:103613000CAE0757080109AA09540AFE0AA70B5161
:103623000CFA0CA40D4E0EF70EA10F4A10F4109EC7
:10363300114712F1129B134414EE1497154116EB24
:103643001694173E18E71891193B1AE41A8E1B3784
:103653001CE11C8B1D341EDE1E881F3120DB2084E1
:10366300212E22D82281232B24D4247E252826D13F
:10367300267B272428CE287829212ACB2A752B1E9E
:103683002CC82C712D1B2EC52E6E2F1830C1306BFC
:10369300311532BE3268331134BB3465350E36B85A
:1036A3003662370B38B5385E39083AB23A5B3B05B8
:1036B3003CAE3C583D023EAB3E553FFE3FFD3FFF17
:1036C3003F0000000020013A830000010020013583
:1036D300830000020020013483000000404201E91E
:1036E30081000003002001388300000400420158D8
:1036F30080000005004201C9800000060042018AE3
:10370300810000070030013783030000002103001C
:103713000005000000200100000500010020013920
:103723000F0500020021013A0F0500030010013CC0
:103733000F0500040018013B830400000018013248
:1037430083060000001001320F06000040100166DE
:1037530010060001402103330F0600024021033508
:103763000F0800000020039E10080001002101370C
:103773000F000301002001400F0003000020013F60
:103783000F000302002101420F0003030021019FE8
:1037930010000304002101A110000308003001A35D
:1037A3001000031000200133830003014030014166
:1037B3000F0003004021013D0F000302402001449C
:1037C3000F000303402001450F000304402101A41F
:1037D30010000305402101A6100003064021014605
:1037E3000F00030A401901A8100003110021012E44
:1037F300830003120021012C8300031300200136F0
:1038030083000315002101288300031600210124EE
:1038130083000317002001398300031900210126C7
:103823008300031A002101308300031B0020013CA5
:10383300830001363601010001020100010301008A
:103843000104010606050200000701003408010017
:103853000F090401010D0100FF0E0800001702000B
:1038630000190100FF1A0100011B0100FE1C0100E9
:10387300081D0200001F01000120010001210200B8
:10388300002301000F24020000260100012701008C
:1038930008280200FF2A0100072B0102402C010027
:1038A300002D0100012E0100012F0100FF30010B4B
:1038B3001C310800003A0100083B01000F3C0100E5
:1038C3000101037103010301030103010301032246
:1038D30003020301031003000300030003000300BA
:1038E3000300030003420300032403060300030051
:1038F30003040312032503230325032303040304FF
:103903000300030003000344030003000323030035
:10391300036503210035038103000305030003004E
:103923000300030003250323030302710230016034
:1039330002110270020102020202028002100261FD
:10394300023A004100630273027202620243020000
:1039530002130238000002000204021202000200F5
:10396300020002000204020402370037003C024452
:1039730002000239000002000265020002350281E2
:10398300020002050282028302000203007100307A
:103993000160001100700031022003500480001008
:1039A30000610000001400630073007200620043B2
:1039B30000000013000600000000000400120000D5
:1039C3000000000000000004000400370037003C42
:1039D3000244000000000000000000650000003504
:1039E3000081000000050000008300000003047153
:1039F30004020460041104700402040204010402BA
:103A03000410046104000414046304730472046264
:103A13000443040004130406040004000404041211
:103A230004000400040004000451046400000400C2
:103A330004000444040004000400040004650400BA
:103A430004350481046400050400048304000401B4
:103A530001710101010101110101013101010101A3
:103A6300018001100161013B0014006301730172C5
:103A730001620143010001130106013D0135000408
:103A830001120100010001000100010401040133DE
:103A93000133013C0144013201360000010001659C
:103AA300010001350081010001050182018301004C
:103AB30001512C6F2C572CA32B5D2C752C5D2C8165
:103AC3002C632CA32B5D2C752C0000000000000040
:103AD30000000000000000000000000000692CA3AB
:103AE3002B000000000000000000000000000000A8
:103AF30000000000000000000000000000000000C3
:103B0300000000000000000000000000003600017B
:103B130000060000000F000000000000000000008D
:103B230000000003FFFF00000403FFFF0000FFFF8E
:103B33000FF4010005C4040320000100000B000082
:103B430000000000000003010F0001751A069F1A10
:103B530008991A0BB71A10F119027B1A058D1A0767
:103B6300811A0C5D1A0D691A642918FF0000000000
:103B7300A325130067250100A325020031250300B7
:103B8300372504003D250500432506004F25FFFF8B
:103B9300000007ECFDFDFDECDCDCCCBCACAC9C9C7C
:103BA3008C7C7C6C6C5C5C5C4C4C3C3C2C2C1C1C02
:103BB300251F551F2B1F311F4F1F431F3D1F5B1F0A
:103BC300611F671F731F371F1F1F191F03EAF5E5C7
:103BD300D5D5C5B5A5959585857575656555554542
:103BE300453535252515150500160F00000B150B5A
:103BF300020002220F3300000E01030507090B0D1B
:103C03000F00020406080A0C0D5A696742656541F4
:103C13006C6C69616E63653039152027202D20E9AE
:103C23001E3320E31EEF1E7520932099207B2087EF
:103C3300208120231E1D1E591E5F1E531E0B1E00B6
:103C4300034D4C4651181A25050200011916181682
:103C530016182303000C0E020B040B0A0708000FAF
:103C6300303017181921301B1D1F3030301618192A
:103C730020231A1C1E30003C40423A3F3F392F4755
:103C830030692039203F204B204520491F6D1F8D6F
:103C930020791F7F1F0204020101010109022F1E67
:103CA300351E291E651E0000000000003B1E4D1E30
:103CB300E803000000BE040AE803000000003C0023
:103CC3003C007F000E00010A0303080900100009ED
:103CD300FF1E1E08050C280C040404100508150C0F
:103CE30003E0FAA3E0F9EA22E4F0A3F0A3F022A3AD
:103CF300123CEBA3F022123CFD22E0F508E4F509A7
:103D0300F50AF50B22740912136E7F040210547422
:103D130001F0900894E0640F22740212136E7F0680
:103D2300021054A3A3E024F5C39412229008B41202
:103D330071E67A147B0022C082C083900523125C53
:103D43005C60061268FD12227990052012554A74B0
:103D530008F0A3E4F0A3F0900598F0900525F07C1B
:103D63000BFDF97A267B051221CB7C0B7D007900B4
:103D73007A317B051221CB02544B74F7120D4A742E
:103D8300F71213B9EAFEEBFF124AE67405123E324C
:103D93007403F0123F1F125764EE2430FCEF34001B
:103DA300FD8C828D83123F56123E1D600BEE242E36
:103DB300124AE974FFF0A3F0EE242EEF34001C1C2A
:103DC300FD8C828D83A3E0C0E08A828B83125144F1
:103DD300D0E0123E1D88828983125B902403126611
:103DE3004F122B3D740812164E7403F09008A9125B
:103DF3001123740212164EAC82AD837903EEFAEFEF
:103E0300FB121FF7740212136EE9F5087007EEFA3E
:103E1300EFFB121EDDA908024B8712685F1257558C
:103E23008A828B83E8F0A3E9F08C828D83E022F011
:103E3300A3E4F0EE240D1264D42274F1120D4AEAC5
:103E4300FEEBFF8C088D09890A123F1F12574C7431
:103E53000F12164E123F44E824FF18E934FFF98885
:103E6300828983E50A123F369008AE123F339008E9
:103E7300AD123F33741112164E123F44EE2404FC6C
:103E8300EF3400FD880B8A828B83E0F50C8C828DE6
:103E930083E0250CC3950B12685BE8F0A3E912538A
:103EA3001DA3A3A3A3A3A3A3A3E064037008123FCA
:103EB30027F0A3E4800AEE240EF582EF126A76A3BC
:103EC300123E357409F0750C26750D05750E0078D4
:103ED3000C121307123F121221BF740312136E75D3
:103EE3000CFF750DFF780C12130BAC08AD097903A9
:103EF300EEFAEFFB121FF7740212136EE9F5087066
:103F030007EEFAEFFB121EDDA9087F070210547CAF
:103F13000B7D00EE241BFAEF3400FB22EE2402FAA1
:103F2300EF340022EE240EF582EF1264D7740122DF
:103F3300123F56123F3A22F0E824FF18E934FFF902
:103F430022E0F50CA3123F56123F3A88828983E59B
:103F53000CF022E0888289832274F0120D4AEAFE73
:103F6300EBFF890B8C0E8D0F750A00A2AFE433F5BE
:103F73000CC2AF90053C803F124042503712405A6A
:103F830064037030EE24F9FEEF34FFFF8508828569
:103F93000983A3A3E02405FCA3E03400FDEEFAEFBC
:103FA300FB122B3DEE24FF1EEF34FFFF7410250A96
:103FB300F50A150B1252CD127292E50B6006E50855
:103FC300450970B4E50CA2E092AFA2AFE433F50C5F
:103FD300C2AF90053C80252402FAE5093400FB8A30
:103FE300828B83124E601240678A828B8312404F0A
:103FF300A3A3124067050A150B1252CD1252E260B9
:104003002712405A640270F1124042E50840C81278
:1040130053BCE5091248F2A2E550DE850E82850FF6
:10402300837401F0E50B70D1E50CA2E092AF8E82B0
:104033008F83E50AF0EE24FFFAEF34FFFB803CE5C3
:1040430008125153E5091242ACA2E6221240532250
:10405300126C43A3A3A322850882850983126C3DB6
:1040630012628022E08E828F83F0EE24FF1EEF34F3
:10407300FFFF221220C9740412136E7F080210542A
:1040830074EB120D4A74F61213B989148A138B1246
:10409300851882851983E4F0900542E0C3940840B3
:1040A30005750F078003E0F50FE50F33333354F83D
:1040B300F8900893E0282437F50CFA7B001221DDF1
:1040C3008A088B09EA45097003024228EA2402F5AB
:1040D3000AEB3400F50BEA250CF8EB3400F9850AFA
:1040E30082850B83125771EA2404F510EB3400F533
:1040F30011851082F583E4F0900893E0FAF8C3E4A5
:1041030098F895E0F9850A82850B83E028FEA3E001
:1041130039FF900891124236750E00780C1213077E
:104123008A0CAC0C7D00EEFAEFFB1221BF74031274
:10413300136E851882851983AC82AD83A90FEE2493
:10414300FFFAEF34FFFB121DF38A0C8B0DAE0CAF9D
:104153000D8E828F83E412406CE512C454F0F99003
:104163000599E0C4333354C0F890088DE0A2E0E42D
:104173003313134849440F124068E513C454F04500
:10418300148E828F83F0EEF8850A82850B83E0FA22
:10419300851082851183E02AC398F0850A82850BF6
:1041A30083EEF0A3EFF0E508240E126A72A3F0E5A4
:1041B30008240D126A72740912164EE4F0750C315C
:1041C300750D05780C1213077C0B7D00E508241B85
:1041D300FAE5093400FB1221BF740312136E85182C
:1041E30082851983E0600EE508240EF582E5091245
:1041F30048F24408F0E4F50AF50B780A12130B743D
:104203000312164EAE82AF83121FDFEEFCEFFDAA40
:1042130008AB09121FF7740212136EE9AA08AB095F
:1042230060071221E37A007B00740A12136E7F0D7C
:10423300021054E0F50CA3E0F50D2274F3120D4ABD
:104243008A0A8B0BA2AFE433F50CC2AF7508007575
:10425300090090053C802C1244875024850A8285EE
:104263000B83A3A31276DD8E828F83A3A31269002F
:10427300121FE5E9600A1242A2C2E6F08E088F0916
:1042830012447C12474370CFE50845096006124388
:1042930066D2E6F0E50CA2E092AF7F05021054125D
:1042A30042A622EE2411F582EF12530AE02274F0A3
:1042B300120D4AEAFEEBFF8C0C8D0D750E00A2AFBA
:1042C300E433F50FC2AF75080075090090053C8013
:1042D30025850A08850B09124366D2E4F0E5081226
:1042E30053BCE5091248F2D2E7F0E50A24FBF58254
:1042F300E50B34FFF583E0F50AA3E0F50BE50A458A
:104303000B6043E50A125153E50B12436050DB8502
:104313000A82850B83A3A3121123AC0CAD0DEEFA15
:10432300EFFB121FEB740212136EE960BDE5084543
:1043330009609EE508240DF582E5091247357006EC
:10434300124371D2E4F0E50FA2E092AFE50845090C
:104353006006121ED7750E01A90E02407E1242ACF2
:10436300A2E722E508125153E5091242AC2285085F
:1043730082850983126C3DE02274F2120D4A74FEA9
:104383001213B9750C00750D00851882851983E425
:10439300F0A3F0A2AF33F50AC2AF90053C1274A6A6
:1043A300803BEE24FBF582EF34FF127290780C12FF
:1043B300130BEEFCEFFD7A3C7B0512221374021201
:1043C300136EEEFCEFFD851882851983AA82AB83F9
:1043D300122201AE08AF09900542E014F0EE4F60DF
:1043E3002C124487501EEE240BF8EF3400F9888218
:1043F3008983E024FFF0A3E034FFF08882898312ED
:104403005C5C609E8E0C8F0D12447C8090E50AA24A
:10441300E092AF900542E06031900894E0640F6051
:1044230006900598E070237A1A7B051220D59082B6
:10443300CE12111F7A1A7B051220C9740412136E4F
:10444300800874F0125786121ECB85188285198353
:10445300AA82AB831222078A0A8B0BAE0AAF0BEE3A
:104463004F6013121DFF1242A2A2E28E828F83A31A
:1044730050D074E980CE023D1CEE24FBF582EF346C
:10448300FFF583221242A6A2E72274F7120D4AEA2D
:10449300FEEBFF121DFF1251411232C2E96401907B
:1044A30008B0700AE02401F8A3E03400800312612D
:1044B3006AF9EE240B124AE9125771900542E07033
:1044C30021900894E0640F70197A1A7B051220D5A5
:1044D3009082CE12111F7A1A7B051220C97404121E
:1044E300136EE5A8F8C2AF900542E004F0E802615C
:1044F3002974F7120D4AEAFEEBFF12452AF0121D4A
:10450300FFEEFCEFFD7A3C7B0512220DE5A8F8C215
:10451300AF900542124EA7900894E0640F7005799E
:1045230008121F970258391242A6C2E42274F712E6
:104533000D4A74EA1213B9EAFEEBFF90088DE060AE
:10454300468518828519837401F012164EE41246CB
:104553001112164EAA82AB83122B3D8E828F8312C9
:104563004377C0E0740A12164ED0E0125B82740BDC
:1045730012164EAA82AB8312200F851882851983E7
:10458300AA82AB831230AD7416024B8974F7120DF5
:104593004AEAFEEBFF121DE774DC69601E74DD69F5
:1045A300601974E469601474F369600F74DE696000
:1045B3000A74DF69600574DB697007EEFAEFFB12BA
:1045C3001F9D02583974F7120D4A74EB1213B9EA9E
:1045D300FEEBFF85188285198374061246111216A5
:1045E3004EAA82AB83122B3DEE2408FCEF3400FD70
:1045F300740A12164EAA82AB8312200F8518828585
:104603001983AA82AB831230AD7415024B89F0EE85
:104613002413FCEF3400FD74022274F7120D4A7464
:10462300F71213B9EAFEEBFFEE24301248EF607085
:10463300124F48851882851983AA82AB83122B3DBA
:10464300740812164E7403F09008A9121123EE2475
:104653002E124AE91211239008BCE0F974041216D1
:104663004EAC82AD83EEFAEFFB121DED7404121310
:104673006E74DC69602374DD69601E74E46960191B
:1046830074F369601474DE69600F74DF69600A741F
:10469300E869600574DB697007EEFAEFFB121F9D92
:1046A300024B8774F2120D4A8A088B09750A00754A
:1046B3000B00750CE7A2AFE433F50DC2AF90053CD8
:1046C30080078E0A8F0B12447C12474360351244D5
:1046D3008750EF12472F70EAEE243212473B8A824B
:1046E3008B83A3A3E06870DA780A12130BEEFCEF56
:1046F300FD7A3C7B05122213740212136E9005425D
:10470300E014F0E50DA2E092AFEE4F6013EEFAEF86
:10471300FB121DFF79F0EEFAEFFB121F9D750C00E3
:10472300A90CAA08AB09121F9D023D21EE240DF529
:1047330082EF1242AC640122F582EF1242ACF822FE
:10474300E0FEA3E0FFEE4F2274F4120D4A74F71259
:1047530013B9EAFEEBFF8E828F83A3E064F3700349
:104763000247F98E828F83A3E064DF70030247F967
:104773008E828F83A3E064E8607C8E828F83A3E0C4
:1047830064DB6072121E41E9F5087062EE240E12BA
:1047930048EF605A124803121E89EA4B60507408AE
:1047A30012164E12480E1211237508FF7509FF7871
:1047B3000812130B8E828F83A3A3A3A3A3A3A3A384
:1047C300E0F9740412164EAC82AD83121DED74042D
:1047D30012136EE9F50874F36508601274DF650857
:1047E300600C74E86508600674DB6508700F8E82E0
:1047F3008F83A3E508F0EEFAEFFB121E4D023D088E
:10480300EE240FFAEF3400FB790922740212702FA1
:1048130074FFF0A3126EDDA32274F1120D4AEAFEB7
:10482300EBFF7508008E828F83A3A3A3A3A3A31218
:104833003D2640037508E88E828F83A3A3A3A3A319
:10484300A3A3A3A3A3E0C3941040057508E88013B2
:104853008E828F83A3A3A3A3A3A3A3A3A3A3E06491
:104863000F600B900575E0540870037508E8EE249B
:104873000B12473B8E828F83A3A3A3A3A3A3A3A35C
:10488300A3A3E0C398500DEE240B1248EF640F600E
:10489300037508E89008ADE0F47003A3E0F4700337
:1048A3007508EC7A237B001222739005231260B201
:1048B300900523125C5C60278E828F83A3A3A98259
:1048C300AA83890C8A0D750E00780C1213077C23BA
:1048D3007D001268FD1221BF740312136E800375ED
:1048E300081A023F0B34FFF509EE240DF582EF128F
:1048F30042AC2274F5120D4AEAFEEBFF8E828F83DF
:10490300A3A3A3A3A3A3A3A3E0900894126EF89078
:1049130008AF126EF090088F126F12900599F0F99C
:104923001229BD900599E0601AEE2404FAEF3400D1
:10493300FB79501229A5EE2406FAEF3400FB79E146
:104943001229A5900598123D12600474018001E4B8
:10495300900525126EFD1213077C0B7D007A267BD2
:10496300051221BF740312136EEE24181259F712A5
:1049730013077C0B7D007A317B0502578C74F71289
:104983000D4AEAFEEBFF8E828F83A3E07006126866
:10499300FD121E478E828F83742C125786121FAF0F
:1049A30002583974F7120D4AEAFEEBFF9005231201
:1049B3005C5C600D1268FD900523E4F0A3F0122205
:1049C300798E828F8374081257861230AD0258395C
:1049D30074F6120D4A900598E06013900525E07077
:1049E3000D1249F3121DF9EA4B6003121EDD801507
:1049F30090088FE0FB9008AFE0FA900894E0F9226A
:104A0300740912136E7F0202105474F4120D4A7467
:104A1300E71213B9EAFEEBFF750B018E828F83A3B6
:104A2300A3A3A3A3A3A3E0A2E2507AEE242BF582CF
:104A3300EF34001276DB124ADD121E05E970669030
:104A43008204E06401700DEE241B12574670057555
:104A53000B008051124AF01213077C0B7D00741176
:104A630012164EAA82AB831221BF740312136E1265
:104A73001FDFE9FA740E12164E85820885830978C2
:104A83000812130B750830750900780812130BEE22
:104A9300242B124AE91211231268407901121FFDD7
:104AA300740612136E8518828519837410124611C9
:104AB30012164EAA82AB83122B31EE242B1271DB1A
:104AC300740B12164E125771740D12164EE50B121B
:104AD3004B011230AD7419023D0AEE2413FAEF3480
:104AE30000FB22EE240EF582EF1264D722EE240897
:104AF300126F0522851882851983EAF0A3EB124B06
:104B0300052212702FAA82AB8322C082C083900534
:104B130099E0600312205102544BC082C083900578
:104B23009074AFF0A3743CF0A37436F0A3743CF01C
:104B3300A374A1F0A3743CF0900FBC74F0F0A374C1
:104B430039F090057A74E1F0A3741DF0900FA67408
:104B530011F0A3741EF0900FA87417F0A3741EF045
:104B6300900575E04402F002544BC082C083EAFC16
:104B7300EBFD7903025BFCC082C083EAFCEBFD79A9
:104B830005025BFC740912136E025839C082C0839C
:104B93007908026D1AC082C08374FE1213B9800DA6
:104BA3007A3C7B05122207124AF7121FD390053C69
:104BB300125C5C70EB90053E125C5C600F7A3E7B8E
:104BC30005122207124AF7121FD380E990053CE42D
:104BD300F0A3F0900542123CEC90054F7401F0A352
:104BE300741FF074028002741112136E02544B741A
:104BF300F6120D4AE9FF8F0874792508F582743C93
:104C0300125E43FE8E08FA7B001221DDEA4B60152B
:104C1300EA25081255191257718A828B83A3A3A31D
:104C2300A3E4F080297A027B001221DDEA4B601AAB
:104C33008F0874632508F582743C12500EF0A37438
:104C43001AF0900570E0F91221E97A007B00024A1C
:104C530008E9FD74062DFCEAA2E0501EEC75F00A8B
:104C630084A8F0E86014740A2CC398FCE8C3940584
:104C73004004740A2CFC740B2CFCEDC39413400405
:104C8300781480027806E82C2409F8E43400F97AD1
:104C93000A7B00120AF2E8F90212EBC082C0839089
:104CA3000575E05402600A1230B3E96004790180AB
:104CB30002790002544BC082C083900575E0540210
:104CC3006016900542E0700C125C59600B1251485B
:104CD300A2E7500479018002790002544BC082C0DC
:104CE30083908202E0F8900544E0C39850051221B6
:104CF300DD80047A007B0002544BC082C083121F04
:104D0300D3790002544B74F7120D4A74FE1213B98F
:104D1300851882851983EAF0A3EB124E83A3A3A31C
:104D2300A3A3E0600A14605D24FE6066024DF19067
:104D33000894E0640F6018121FA9E97012851882A5
:104D4300851983126900900FAA1251441232C2903E
:104D530008BCE0C0E0851882851983125B60D0E04F
:104D6300124E83741412702B1276DD7A3E7B051279
:104D73002201E5A8F8C2AF900544124EA77920128C
:104D83001F970255CF851882851983126C457415B8
:104D930080D3851882851983124E5BA3A3E0604EEE
:104DA300851882851983E02402F8A3E03400F9888A
:104DB3008289831274ACE0C0E0851882851983E090
:104DC300FCA3E0CC2406F582EC124AECD0E0126896
:104DD30080888289831260B2851882851983125173
:104DE300758518828519836014124E6E404B8518A1
:104DF30082851983AA82AB83121FD38085124E6EDC
:104E03005022124E77FA851882851983A3E0C824AD
:104E130006F582E812473E749728F582743C125EC9
:104E2300436A6015851882851983124E60E0640811
:104E330070BC124E77640870B5124E7714124E8B05
:104E4300240AC0E0851882851983125144D0E012E8
:104E53004E8B04024D68E0F8A3125BA622124E6447
:104E63002212533FC8240612530722124E64E01441
:104E7300C3940922851882851983124053A3E02223
:104E8300124E98F583888222124E98C82406F58222
:104E9300E81242AC2212702F12533F22E5A8F8C247
:104EA300AF900543E004F0E8A2E7A2E792AF22C087
:104EB30082C083900547125C5C6008126C46123214
:104EC300C28002790002544B74F7120D4AEAFEEBDA
:104ED300FFEE240D123F2A1254E0F8A3E0F9124A20
:104EE300E6125771EE24351248EFC0E0EE24131298
:104EF3004AE9D0E0F0EE24361248EFC0E0EE241485
:104F0300124AE9D0E0F0EE24381248EFC0E0EE2474
:104F130018124AE9D0E0F0EE242F124AE9121123C5
:104F2300124F48EE2431F582EF1252DD121FF7744F
:104F33000212136EE9F5087007EEFAEFFB121EDD9D
:104F4300A908025839EE2426FCEF3400FD22C08262
:104F5300C083121FA9E960047920800279010254F9
:104F63004BC082C083EA125153EB1248F2D2E0F0F5
:104F730002544BC082C0831250071247357011127E
:104F83005016400C8A828B83A3E0F9121F9D807117
:104F9300EA1253BCEB1248F2A2E650128A828B83C8
:104FA300A3E0F9900FAC1251441232C28053125055
:104FB30007124735700D12501650088A828B83747E
:104FC3003080358A828B83A3E0641B8A828B837053
:104FD3000474228023A3E0700F12500712473E741B
:104FE3006E28F582743C800D12500712473E74639D
:104FF30028F582743C12500EF0900570E0F91221EE
:10500300E902544BEA240DF582EB22125E478A82B1
:105013008B8322EA2410F582EB1242ACA2E32274C2
:10502300F7120D4AE9FE125C59700302513EEE601D
:1050330010741B6E7012126849E06405700302510C
:105043000C126C35E402511074E96E705B12516AF4
:10505300700B1230B9E96005125183605B9005450E
:105063001251679005456039125186900545700BC2
:1050730012516714F0122ADD02513E125175C2E734
:10508300125325240DF582E812728A700C9005459F
:10509300E0F8A3125148D2E2F01251581232C28002
:1050A30076126C3874E9806574E16E703F1230B922
:1050B300E9605612518370519008B6E0C0E0126166
:1050C30067C82412F582E8124AECD0E0F09008A5F4
:1050D300E0C0E0900545124E59124E59D0E0F090D1
:1050E30008A5E004F07901122AC5804F741C6E7084
:1050F30018900545126900900FB21251441232C242
:10510300900545E4F0A3F08032126C35EEF0900583
:1051130045126900121ECB1252F6E05480601090C3
:1051230008BCE0F91229E19008BBE0F91229D590F7
:105133000545E4F0A3F07910121F97025839900F38
:10514300B0126C3F22E0C8125153E81242AC22E87D
:105153002411F58222900545E0FAA3E0FB900FA805
:10516300126C3F22E0F8A3E0C82412F582E8124251
:10517300AC22E0F8A3E0C82410F582E81242AC2286
:105183009005451252FDE054042274F4120D4A7541
:105193000A00750B00A2AFE433FFC2AF125C596083
:1051A300030252851251411232C2E94410F89005AC
:1051B3003C800985080A85090B1252CD1252E27010
:1051C30003025285124366586870E8780A12130B7B
:1051D300AC08AD097A3C7B05122213740212136EDC
:1051E300900545E508F0A3E509125325125153E84C
:1051F300124360500302528C900543E014F0EFA277
:10520300E092AF900545E0240EF8A3E03400F9885E
:105213000889098882F583126900900545124E7D3D
:10522300F9121E8FE9900540F012531BE054806081
:1052330018126167C824131252DA1229E112616746
:10524300C824141252DA1229D51252F6A3E05401DB
:105253006066900540125C5C604912530F60441213
:10526300530FF87900900540126900120AFAE8C05A
:10527300E01252EAD0E012532AC39413401174028D
:10528300800EEFA2E092AF803E9005420251FEE411
:10529300C0E0900546E0C8241AF582E8124AECD033
:1052A300E080101252EA7401125325241AF582E8A1
:1052B300123F2DF07903800C900545125175A2E140
:1052C300B3E433F9122AC5023D0DE50824FBF58248
:1052D300E50934FFF58322F582E81242ACF9221284
:1052E3007296E5084509221268702419F582E812BE
:1052F30064D7229005451252FD2212533FC8240E53
:1053030012530722F582E83400F5832212687024D1
:1053130018F582E81242AC22A3E4F08508828509DD
:105323008322125337C822125337F5838882A3A3EB
:10533300A3A3E022F090054512533F22E0F8A3E037
:105343002274F7120D4AEAFEEBFF121FCDEE125341
:10535300BCEF12501C400A12472F70059082008048
:1053630003908201E0F9EEFCEFFD7A3C7B0512220B
:1053730019E96034EEFAEFFB900FAE12514412328A
:10538300C2EE240E1253C17010124E9FEE240E1261
:1053930054D87021121ED7801CEEFAEFFB900FA693
:1053A3001251441232C2800D8E828F83A374F11284
:1053B3005786121ECB025839E82410F58222F58253
:1053C300EF1242AC540422807874F7120D4AEAFEBD
:1053D300EBFF7900900575E05402700AEE24331256
:1053E30053C1600279E8900575E05460700CEE24B7
:1053F300331248EF5402600279E88E828F83A3A3AD
:10540300A3A3E0C39475400279E8EE24311248EF78
:10541300700CEE242E1248EF700479F58009E970C0
:1054230003121EB9E96007EEFAEFFB121F9D025843
:1054330039C082C0838A828B83740DF01230AD80B1
:1054430007C082C083121ED7D083D0820212EB74AE
:10545300F4120D4AEAFEEBFF8E828F83E4F0A3126F
:1054630054E054049082007012E0F8900543E0C3C6
:1054730098401279F1121F9D023D0DE0F89005420C
:10548300E0C39850EEEE24331254D86036EE24373E
:105493001248EFC394054039EE24331248EF540504
:1054A300702F7A497B051220D5EE2437124AE91270
:1054B3003CF978081213037A497B051220C9740456
:1054C30012136EEEFAEFFB900570E0F91221E980FA
:1054D300A779E880A01264D4A3E0540122F0EE245B
:1054E300331242A92274F6120D4AE9FE2451FAE45A
:1054F3003400FB1221DDEA4B6015EE8A828B83A315
:10550300A3A3A3F0EA245112551912577180047A08
:10551300007B00024A08F8EB3400F98A828B83A3EC
:10552300A322025444C082C08390056CE4F090052A
:105533006FF090055812554A7402F09005611255A8
:105543004A7401F002544B7497F0A3741FF0A32222
:1055530074F5120D4A74F11213B9851882851983F3
:105563007402F0740112164EE9F060047AFF7BFFB7
:10557300740212164E1260B2750864750905750A35
:105583000078081213077C0B7D00740712164EAACD
:1055930082AB831221BF740312136E85188285199F
:1055A30083AA82AB831230AD740F02579174F71242
:1055B3000D4A74FE1213B9851882851983740AF093
:1055C300740112164EE9124B011230AD7402024BF4
:1055D3008974F0120D4A1270B61215EC7808790C22
:1055E300120BE278081213037A5B7B050240767490
:1055F300F4120D4A74C61213B9900894E0640F6054
:1056030010851882851983742E1260B8121FAF801B
:10561300277A527B051220D5123D2F120AFA8808E9
:105623008909E4F50AF50B78081213037A527B050E
:105633001220C9740412136E743A023D0A74F512EF
:105643000D4A74F71213B9EAFEEBFF8E828F83A320
:10565300E0F50860030257301257436008E0640323
:1056630060037508E8EE2426124AE9123D285034F7
:10567300E5086003025730EE2426FAEF3400FB7985
:10568300E11229A5EE2431FAEF3400FB79501229F7
:10569300A51257437014EE24281271DB9008A3124D
:1056A300577180187508E80257349008A374FEF008
:1056B300A30412575A7A9A7B08122B3DEE241B122D
:1056C3004AF31213077C0B7D007A647B051221BF1A
:1056D300740312136E123F27123E32740212575A8A
:1056E300851882851983AA82AB83122B31EE24316C
:1056F30012662D12574C8A828B83E8F0A3E9125469
:10570300E012664312130B740212164EAC82AD8381
:1057130079831A1AEFFB121FF7740212136EE9F55D
:10572300097007EEFAEFFB121EDD850908E5086034
:105733000B12764D7417125786121FAF7409804EE1
:10574300EE24301242A9640222FB8A828B83125711
:105753005522125777F922F0EE2428FCEF3400FD8E
:1057630022FB8A828B83125777F98A828B83E8F034
:10577300A3E9F022E024FFF8A3E034FF228E828F16
:10578300837429F0EEFAEFFB221221BF7403121384
:105793006E7F0302105474F6120D4A74F71213B994
:1057A30090056FE070457401F0F9122A8F85188215
:1057B300851983AA82AB83121FD9750864750905FD
:1057C300780812130B750801750900780812130B7A
:1057D3009008A9121123740612164EAC82AD837A77
:1057E300037905121FFD740612136E024A0374F740
:1057F300120D4AEAFEEBFF7901122A958E828F83FE
:10580300E064207004A374EBF090056FE0A2E25013
:1058130003C2E2F0E0A2E15008125A35121F1380CE
:105823000C8E828F83742A125786121FAF8007EE65
:10583300FAEFFB1220457F0102105474F4120D4A53
:1058430074FE1213B9EAFEEBFF7901122A957A521C
:105853007B051220D57A5B7B051220D5125B6C8504
:105863001882851983125B99E0F50B7015851882F0
:10587300851983AA82AB8379531229A512727C12EC
:1058830029A5124AF01213077C0B7D007A647B056D
:105893001221BF740312136E85188285198312694E
:1058A30000A90B121F0D90056FE0A2E1500A8E8232
:1058B3008F83A3E0F9121F1390056FE4F0740202C3
:1058C3003D0A74F7120D4AEAFEEBFF8E828F83A323
:1058D30074EBF090056FE0A2E1500579EB121F1312
:1058E300EEFAEFFB121F4302583974F7120D4AEA1E
:1058F300FEEBFF7901122A957A527B051220D57AA5
:105903005B7B051220D590056CE4F090056FF07A6F
:10591300FF7BFF8E828F83A3E0F9121F0D0258399C
:1059230074F7120D4AEAFEEBFF121F3D0258327460
:10593300F7120D4AEAFEEBFF7901122A958E828F48
:1059430083A3A3A3A3E06003E4800274EB1259834F
:105953005003C2E2F0E0A2E15008125A35121F13BD
:105963008014A2E050108E828F83742AF0A374EB0C
:10597300125786121FAFEEFAEFFB121EEF025839D1
:105983008E828F83A3F090056FE0A2E22274F61259
:105993000D4AEAFEEBFF90056FE0D2E1F0790112C8
:1059A3002A8F8E828F83A3E0703B121FDFE9FAEE0A
:1059B300240D1259F712130B7508017509007808A5
:1059C30012130BEE240B124AE9121123EE2402FCEC
:1059D300EF3400FD7905121FFD740612136EE98E74
:1059E300828F83A3F08E828F83A3E06004F9121F5A
:1059F30013024A08F508EF3400F50978082274F712
:105A0300120D4AEAFEEBFF7901122A958E828F83EB
:105A1300E064207004A374EBF090056FE0A2E25001
:105A230003C2E2F0E0A2E15006125A35121F13023C
:105A33005839C2E1127658A3E0F92274F7120D4ADD
:105A4300EAFEEBFF7901122A957A527B051220D5E3
:105A53008E828F83A3A3A3A3E06003E4800274EB8D
:105A63001259835003C2E2F0E0A2E15006125A3504
:105A7300121F1302597974F7120D4AEAFEEBFF79EC
:105A830001122A958E828F83A374EB1259885003D7
:105A9300C2E2F0E0A2E15006125A35121F13025877
:105AA3003974F7120D4AEAFEEBFF7A527B05122096
:105AB300D5EEFAEFFB121F6702583274F7120D4A44
:105AC300EAFEEBFF7A527B051220D5EEFAEFFB12CA
:105AD3001F6702583974F7120D4A74EF1213B9EAAB
:105AE300FEEBFF1268407A9A7B08122B2BE9606861
:105AF3008518828519837409F0740112164E74EFA8
:105B0300F0125B6CF8740212164EE8125B99A3A3B1
:105B1300E0C0E0740412164ED0E0125B906408708B
:105B2300158E828F83A3A3125B60E0C0E07405121D
