:020000040000FA
:06000000020AB4020257DF
:03002B000207E0E9
:0300430002079B16
:0300530002018B1C
:100083000201EB01FF01010503010F10FEFF7E15C5
:100093007E157E157E15281422147E15ED2B000087
:1000A3000000852B00000000FF000000FF0001009E
:1000B300006A17000000000000AE1800001E1800C0
:1000C300004C1700000000000000000000000000CA
:1000D300000000FFFF0101006906000000E803E2E1
:1000E30006E80364006400B801020200080000058A
:1000F30002070401051E02051E020A0A0103B80BCA
:1001030002803E0102E8030A050001FFFF0114001B
:1001130020FD000206FFFFFF0D5EC05EE10201F25B
:100123008201F0820D5B10000000FF322838283E68
:1001330028442800004A2800006E28502856285CCE
:100143002862286828FEFFD428DA280000E0280067
:10015300000000000000000000000000000000FE9E
:100163002800000000000000000000EC28F228F83E
:1001730028000000000B040105000202B1820728D9
:10018300810B5EC040080200C0E074F112046FA24C
:10019300AFE433FED2AFE5A7FFE5A1F5085FF509AC
:1001A30074105509600612218A75A1EF7408550968
:1001B300600812219075A1F78024E508A2E092F06F
:1001C300EFA2E082F05017906198E0F89009F0E018
:1001D300C398A2D265D0335002E8F075A1FEEEA217
:1001E300E092AF7F020204CEC0E074F212046FA269
:1001F300AFE433FED2AF9061A4E0F8759B00E591C4
:1002030058540860087591F71221E48023E591584A
:10021300541060087591EF1221EA8014E591A2E071
:1002230092F0E8A2E082F05007E0C2E0F012232E41
:100233009061A3E0F8E5E9585404600E12230475B5
:10024300E9FB906193E0A2E640F2EEA2E092AF7F79
:10025300010204CEC0E074F212046FA2AFE433FED5
:10026300D2AF9061A5E0F8E5BF585404600675BFAE
:10027300FB12234680D4C3E498F8E499F91202BA36
:100283008026C3E49AFAE49BFBE920E7E91202BA69
:10029300E498F8E499F922C3E498F8E499F912028E
:1002A300BAE498F8E499F9C3E49AFAE49BFB22EBE5
:1002B30020E7CFE920E7E0B90010BB0008E88AF0A7
:1002C30084F8AAF022E4FBC8FA22EB70227B10C860
:1002D30033C8C933C9335007C39AC3DBF280069AC4
:1002E30050012ADBEAC833F4C8C933F4C9FA2275CA
:1002F300F008E4C833C8C933C933C99AC99B500449
:10030300C92AC93BD5F0ECFBC833F4C8E4C9FA22C7
:10031300080808EAC0E0EBC0E086F0E7A4FA180991
:1003230086F0E7A42AFA180986F0E7A42AFA18093E
:1003330086F0E7A42AFA1986F0E7A4FBE5F02AFA87
:10034300190886F0E7A42BFBE5F03AFA190886F0C2
:10035300E7A42BFBE5F03AFA18180986F0E7A4C5E1
:10036300F02BFBE43AFA1908E7C5F0C6A426F6E534
:10037300F03BFBE43AFA1886F0E7A4F6E5F008262A
:10038300F6E43B08F6E43A08F6D0E0FBD0E0FA22C4
:10039300E4CFC0E0E4CEC0E0E4CDC0E0E4CCC0E014
:1003A30075F020C3E633F608E633F608E633F608BD
:1003B300E633F6181818EC33FCED33FDEE33FEEF9D
:1003C30033FFC3EC9709ED9709EE9709EF971919D6
:1003D30019400FFFEC97FC09ED97FD09EE97FE1905
:1003E3001906D5F0BEECF709EDF709EEF709EFF7BB
:1003F300191919D0E0FCD0E0FDD0E0FED0E0FF22D7
:100403002518C582C0E0E51934FFC583C0E0E518AF
:10041300C3958224F810AF08858319858218800854
:10042300858319858218D2AFCEF0A3E520F0A37897
:1004330008E608F0A3DEFAEFF0A3E58124FAF8E674
:1004430008F0A3E608F0A3E608F0A30808E608F01E
:10045300A3E608F0A315811581D0E0FED0E0F815DE
:100463008115811581E8C0E0EEC0E022C0D02518D7
:10047300C582C0E0E51934FFC583C0E0E518C39524
:100483008224F310AF088583198582188008858339
:1004930019858218D2AFC8F0A3E9F0A3EAF0A3EB61
:1004A300F0A37908E709F0A3D8FAECF0A3EDF0A3E1
:1004B300EEF0A3EFF0A3D0E0F0A3D0E0F0A3D0E000
:1004C300F0A3E520F0A3E5F0F0A3228519838518B6
:1004D30082E0C0E0A3E0F9A3E0FAA3E0FBA378087D
:1004E300E0F608A3DFFAE0FCA3E0FDA3E0FEA3E04F
:1004F300FFA3E0C0E0A3E0C0E0A3E0F5D0A3E0F5F4
:1005030020A3E0A3F5F010AF088583198582188036
:1005130008858319858218D2AFD082D083D0E0F8C2
:10052300D0E032120B16B90003020568E49004010F
:10053300788E790E8002F0A3D8FCD9FA90118EAA96
:1005430082AB83900086780679028015E493A3AC8E
:1005530082AD838A828B83F0A3AA82AB838C828D44
:1005630083D8E9D9E77582FA7583D6740612087FB2
:100573007582F075832A740012087FE47375F01096
:100583008E1A8F1B85821F85831E8518828519838A
:10059300E0CEA3E0CF851F82851E83EBC9EAC8EDB9
:1005A300CBECCAC3E833C8E933C9EA33CAEB33CB6C
:1005B300C3EA9EF51DEB9FF51CB35004AB1CAA1DAB
:1005C300EC33CCED33CDD5F0DAAE1AAF1B22D083AA
:1005D300D082ECC0E0EDC0E0E493A3FCE493A3FD80
:1005E300ED4C600D1206A9EC24FFFCED34FFFD80F9
:1005F300EFE493A3FCE493A3FDED4C600D120746D7
:10060300EC24FFFCED34FFFD80EFD0E0FDD0E0FCF7
:10061300E493A3C0E0E493C0E022851983851882A4
:10062300E0A3FEE0A3F5207808E0A3F608DFFAE0F4
:10063300A3FFE0A3C0E0E0A3C0E0E0A3C0E0E0A329
:10064300C0E0E0A3C0E010AF08858218858319805D
:1006530008858218858319D2AFD083D0820208859A
:10066300D083D082E9C0E0E493A3C386F0C5F095BC
:10067300F0F908E493A386F0C5F095F0700BE493CA
:10068300A3C3994005E9048002A3E475F002A425FD
:1006930082F582E5F03583F583D0E0F9E493A3C0D6
:1006A300E0E493C0E022C0E0C3E4939608740193AE
:1006B3009618400FE49366700808740193661870E7
:1006C300007019A3A3C3E49396087401939618A327
:1006D300A3400DD0E0D0E0D0E002060DA3A3A3A376
:1006E300A3A3D0E0227404800474028000CCC0E091
:1006F300EDC0E0E518C39CCCAD1950011D10AF0649
:100703008C188D1980068C188D19D2AF120801D060
:10071300E0FDD0E0FC2274028000CCC0E0EDC0E03C
:10072300E518C39CCCAD1950011D10AF068C188D74
:100733001980068C188D19D2AF1207BED0E0FDD0F8
:10074300E0FC22C0E0C0F088F0E49366700808740F
:10075300019366187000A8F0A3A3700BD0F0D0E04B
:10076300D0E0D0E002060DA3A3D0F0D0E022D083E6
:10077300D082CCC0E0E493A360061208221470FA7E
:10078300E493A360061209381470FAD0E0FCE493F2
:10079300A3C0E0E493C0E022C0E074F212046FA2AD
:1007A300AFE433FED2AFC2C0E5D1A2E450031220BE
:1007B300EEEEA2E092AF7F010204CECAC0E0E49362
:1007C300A3C582CCC582C583CDC583F0A3C582CC26
:1007D300C582C583CDC583DAE5D0E0CA22C0E0C0B7
:1007E300D0E8C0E0E9C0E0E5A8D2AFC2C7A2E7A263
:1007F300E792AFD0E0F9D0E0F8D0D0D0E032CAC071
:10080300E0E0A3C582CCC582C583CDC583F0A3C573
:1008130082CCC582C583CDC583DAE6D0E0CA22C0C7
:10082300E0E493A3D39C5010E493A3C39C400AD069
:10083300E0D0E0D0E002078EA3A3A3D0E0227009AA
:10084300080808226016181818C6C333C608C6332A
:10085300C608C633C608C633C6D5E0EA22C008C3F5
:10086300E096F50808A3E096420808A3E09642083C
:1008730008A3E09645087001D3D00822C09FF59FD6
:10088300E473D09F22D083D082C09FE493C0E074EE
:100893000193C0E0740293F59F222518F58210AFEF
:1008A30008F518400215198008F51840021519D2E9
:1008B300AF851983227404800A740380067402804E
:1008C300027401C0E0F40412089DD0E0120AF12280
:1008D300C0D0251810AF08F518500205198008F587
:1008E3001850020519D2AFD0D022BB0102E722C0B3
:1008F30082C08389828A83BB0003E08002E493D0B1
:1009030083D082226016080808C6C313C618C6130C
:10091300C618C613C618C613C6D5E0EA22C3E0C676
:1009230096F608A3E0C696F608A3E0C696F608A3D3
:10093300E0C696F622C0E0E493A36C7009D0E0D041
:10094300E0D0E002078EA3A3D0E022251810AF0861
:10095300F518400215198008F51840021519D2AF91
:1009630022C3E09608A3E09608A3E09608A3E096C6
:10097300A2D265D03322E066701008A3E066700A45
:1009830008A3E066700408A3E06622E76670100817
:1009930009E766700A0809E76670040809E7662232
:1009A300C3E096F008A3E096F008A3E096F008A34E
:1009B300E096F022C3E493960874019396087402B8
:1009C3009396087403939622E026F008A3E036F08A
:1009D30008A3E036F008A3E036F022700422600D8D
:1009E30018C6C333C608C633C6D5E0F41822E64793
:1009F300F60809E647F60809E647F60809E647F662
:100A030022E657F60809E657F60809E657F60809F5
:100A1300E657F622E056F608A3E056F608A3E0569A
:100A2300F608A3E056F622E056F008A3E056F008D5
:100A3300A3E056F008A3E056F022E627F60809E6FD
:100A430037F60809E637F60809E637F622E026F610
:100A530008A3E036F608A3E036F608A3E036F6224C
:100A6300E4C396F608E496F608E496F608E496F6E8
:100A730022600D08C6A2E713C618C613C6D5E0F355
:100A830022C6F4C608C6F4C608C6F4C608C6F4C629
:100A930022C3E7960809E7960809E7960809E79647
:100AA30022C3E09608A3E09608A3E09608A3E09685
:100AB3002275D0007581407518017519040002056F
:100AC30026E0F608A3E0F608A3E0F608A3E0F62282
:100AD300600C08C6C313C618C613C6D5E0F422E6D5
:100AE300F008A3E6F008A3E6F008A3E6F022CAC0E4
:100AF300E0E6F0A308DAFAD0E0FA22E0FAA3E0FB9A
:100B0300A3E0FCA3E0FD22EAF0A3EBF0A3ECF0A347
:100B1300EDF022E5C754F84401F5C7790122251801
:100B2300F582E43519F58322C2AF75D69F02000022
:100B330022120888B5AA02120888D9AA02120888C4
:100B430005AB0212088835AB02120888DCAC02122E
:100B53000888D8AD021208882EAE021208886CAE3F
:100B63000212088896AE0212088814AF021208888F
:100B73006DAF02120888CEAF021208883DB202128E
:100B8300088807B402120888CBB40212088815B685
:100B930002120888F8B802120888F1BB021208880A
:100BA30000BC0212088891BC021208884EBD0212D2
:100BB300088896BD02120888DFBD021208881CBE91
:100BC3000212088880BE02120888ECBE021208884E
:100BD30008BF021208883CBF0212088887BF0212AE
:100BE300088884C0021208883BC102120888CAC35D
:100BF300021208880FC502120888BCC502120888B1
:100C03004CC60212088870C60212088822C7021254
:100C13000888EFC702120888B8C902120888F6C903
:100C2300021208886DCA02120888CCCB0212088807
:100C330079CC02120888BACC02120888D2CC0212EC
:100C4300088884CD021208884AD002120888DED1AF
:100C53000212088802D20212088820D202120888DF
:100C630009D302120888C6D602120888E4D60212F3
:100C730008880080031208881280031208886A809B
:100C830003120888D080031208885A810312088847
:100C93001D82031208886582031208889182031259
:100CA3000888D18203120888388303120888AD8329
:100CB30003120888C68303120888EC83031208888A
:100CC3000B84031208884984031208889E84031244
:100CD3000888C58403120888228503120888E985D9
:100CE300031208888286031208880587031208887E
:100CF300CD870312088816880312088832880312E6
:100D03000888648803120888128A03120888DE8A16
:100D130003120888038B03120888308B0312088898
:100D23005B8B031208886A8B03120888758B031286
:100D33000888208C03120888878C031208880A8D80
:100D430003120888128D031208889A8D03120888EB
:100D5300028E03120888418E0312088882900312C0
:100D630008886991031208889C91031208885E928F
:100D7300031208881A93031208884C9303120888F5
:100D8300B29303120888C39303120888369403129C
:100D93000888CE94031208882795031208880596BD
:100DA300031208882A9603120888489603120888B3
:100DB3005B9603120888B39603120888C29603123F
:100DC30008884A97031208888B9703120888989714
:100DD30003120888A19703120888AC9903120888A4
:100DE300009B03120888109B03120888499C031276
:100DF3000888B09C03120888B89D03120888FA9DDE
:100E030003120888369E031208885E9F031208881F
:100E1300D2A103120888E6A103120888F0A10312E5
:100E23000888FAA10312088804A2031208881DA2E5
:100E33000312088827A20312088831A20312088824
:100E43003BA20312088863A203120888B1A203120B
:100E53000888BCA203120888E0A20312088804A32E
:100E63000312088874A303120888C0A30312088816
:100E7300DCA30312088842A40312088889A403127E
:100E83000888D5A40312088840A503120888F0A592
:100E930003120888C3A70312088831A8031208881D
:100EA3006EA90312088894A90312088807AB0312DA
:100EB3000888AAAE03120888A4B00312088884B273
:100EC300031208881DB30312088851B5031208885A
:100ED300F4B50312088846B603120888CAB603128B
:100EE3000888E2B6031208881FB90312088864BA97
:100EF30003120888C3BA031208885CBB031208886C
:100F03002EBD0312088870BE031208888FBE031219
:100F13000888E4BE03120888E5BF031208880DC0E1
:100F23000312088870C00312088868C10312088876
:100F3300E4C1031208880EC30312088879C303129D
:100F43000888B7C40312088819C7031208884AC758
:100F530003120888F5C90312088847CA03120888D0
:100F630005CB03120888C1CB0312088825CC0312D2
:100F73000888E6CC0312088888CD03120888EDCDD3
:100F8300031208882CCE031208885DCE031208884A
:100F9300C7CF03120888FA8201120888328301122C
:100FA3000888FF85011208883E86011208888A8610
:100FB30001120888748701120888D88701120888EB
:100FC300388901120888178C011208885A8D01127A
:100FD3000888549801120888E99801120888E69B4A
:100FE30001120888EB9C011208884E9D01120888A3
:100FF300999E0112088819A10112088816A30112EB
:101003000888A3A3011208887FA40112088817A5E2
:101013000112088821A5011208884FA5011208882A
:1010230004A601120888E2A601120888B9A70112D2
:101033000888CFA70112088830A80112088859A888
:101043000112088886A801120888B7AA0112088825
:1010530096AB01120888DAAB0112088845AC01127D
:10106300088804AD0112088836AD011208887DADE9
:1010730001120888B0AD0112088805AE0112088874
:101083005AAE011208885FAE01120888B3AE01128E
:101093000888FBAE01120888FFAF0112088864B00C
:1010A30001120888C0B00112088831B10112088802
:1010B30001B40112088803B50112088870B6011241
:1010C30008885FB90112088806BA0112088854BC5F
:1010D30001120888F7BC0112088835BD011208887F
:1010E30017BF011208882ABF0112088833BF0112F3
:1010F30008883CBF0112088851BF0112088870BFDD
:10110300011208884AC1011208889FC10112088888
:10111300A9C101120888B3C10112088804C20112CF
:10112300088858C20112088874C301120888CBC307
:10113300011208882DC5011208887EC5011208888E
:1011430029C60112088847C701120888F2C701128D
:1011530008880DC90112088834CA0112088837CBE0
:10116300011208884ECB011208888BCB0112088824
:1011730095CB011208889FCB01120888AACB0112D4
:101183000888C8CB011208880ACC0112088867CCEA
:10119300011208888CCC01120888A6CC0112088899
:1011A30025CD0112088862CD0112088897CE01125D
:1011B3000888E9CE0112088803D0011208882AD0D2
:1011C30001120888BED00112088839D1011208889B
:1011D30089D201120888BCD3011208886ED4011287
:1011E300088839D501120888DED50112088848D647
:1011F30001120888FDD60112088851D70112088808
:10120300AFD7011208887AD8011208889DD8011235
:1012130008885CD90112088880D901120888A2D9EC
:101223000112088803DA0112088843DC01120888D6
:101233002DDD01120888D8DD01120888FDDF0112B7
:1012430008884BE0011208888EE001120888E6E066
:101253000112088844E10112088871E1011208882B
:1012630095E101120888C8E101120888F2E1011230
:10127300088839E2011208888EE201120888EAE23E
:1012830001120888E7E3011208884BE50112088878
:1012930089E501120888B2E50112088841E60112C6
:1012A30008888BE601120888AFE601120888FFE67A
:1012B300011208881AE701120888D1E70112088889
:1012C3000AE80112088862E801120888B8E80112E6
:1012D3000888BCEB01120888EFEB01120888ADEC1B
:1012E30001120888B5ED011208883EEE0112088844
:1012F300CAF30312088802F40312088823F40312C2
:10130300088865F403120888C7F403120888D1F427
:1013130003120888E1F40312088818F503120888F9
:1013230054F50312088816F903120888D7FA031232
:101333000888F9FC03120888B8FD0312088885FEA3
:1013430003120888773000120888BA300012088820
:101353007A3100120888993200120888C0330012CB
:1013630008887B3500120888EE3500120888B936E4
:1013730000120888CA37001208883138001208881A
:101383006D3800120888CC3800120888053900121D
:1013930008885A3900120888E33900120888883A05
:1013A30000120888593B00120888333C0012088851
:1013B300BD3C00120888E33C00120888103D00126F
:1013C30008884A3D001208884A3E001208885A3E9F
:1013D30000120888AA3E00120888B73E0012088847
:1013E300CC3E00120888D53E001208882F3F001219
:1013F3000888913F00120888DB3F00120888F63FF7
:10140300001208881D40001208883A40001208881C
:10141300464000120888EF41001208880842001273
:1014230008888E4200120888A14200120888B3423D
:10143300001208885F4300120888CA440012088813
:1014430081460012088807470012088809470012DE
:1014530008887147001208888F47001208882548BA
:10146300001208886248001208886548001208883C
:10147300904800120888ED480012088811490012AC
:1014830008882F49001208887D4900120888D64A27
:10149300001208882E4B001208887B4B0012088824
:1014A300024C001208882A4C00120888604C001273
:1014B30008886F4C00120888CD4C001208883E4DF6
:1014C300001208887B4D00120888B64D0012088868
:1014D300E14D00120888FB4D00120888154E0012DA
:1014E3000888E94E00120888F34E001208882F4F2F
:1014F300001208883F4F00120888484F00120888DE
:10150300A84F00120888BC4F00120888C65000126A
:101513000888D95000120888EE50001208889351A9
:10152300001208880F5200120888B252001208886D
:10153300BE52001208880454001208882054001276
:101543000888785400120888B45400120888CE54CE
:1015530000120888305500120888CF5500120888F9
:101563001A56001208886658001208880D5900128E
:101573000888A95900120888CF5B00120888E75B26
:1015830000120888EA5B00120888F65B00120888DC
:101593000A5C00120888125C00120888525C001270
:1015A30008884B5D00120888CE5D00120888505EE3
:1015B30000120888CA5E001208889C5F001208881F
:1015C300BE5F001208885A60001208886660001225
:1015D30008889160001208889460001208880361EB
:1015E300001208886662001208887D63001208886A
:1015F30008640012088845650012088817660012FF
:1016030008884866001208887466001208887D6698
:1016130000120888AC66001208885C67001208880C
:101623001668001208888A68001208882669001262
:101633000888AE6900120888E46900120888296ADC
:10164300001208881FF00512088872F00512088836
:10165300AFF005120888FFF00512088883F1051220
:10166300088895F30512088881F505120888FEF8A5
:10167300051208882EF9051208884CF90512088806
:10168300B6F905120888E6F90512088819FA051251
:10169300088850FA05120888B0FA051208880080F5
:1016A300061208887C8006120888A3800612088820
:1016B300D7800612088837820612088853820612DA
:1016C30008889882061208881F8306120888688390
:1016D30006120888F98306120888DF840612088830
:1016E300328506120888978506120888188606121E
:1016F30008886E8606120888B786061208885487FB
:10170300061208884B8806120888998806120888EA
:10171300E78806120888098906120888A489061230
:1017230008883D8A06120888CEE906120888ECE983
:101733000612088851EA06120888F9EA0612088890
:101743000EEB0612088844F106120888B8EC06125C
:101753000888E0EC06120888D7ED0612088832E8FC
:101763000612088877E9061208888C8A0612088808
:101773003B8B061208885B8B061208887B8B06124C
:1017830008888F8B06120888F98B06120888298C23
:1017930006120888AD8D06120888568E0612088830
:1017A300418F06120888908F06120888D38F06127D
:1017B3000888609006120888AA9006120888CB90C1
:1017C300061208883491061208886991061208885F
:1017D300DB91061208887593061208884694061250
:1017E3000888889406120888E29406120888C9E2D9
:1017F30006120888EAE2061208882CE40612088812
:1018030056E4061208889CD90612088815DA0612CF
:10181300088820DA0612088841DA0612088819E3D4
:10182300051208882DE50512088875E60512088853
:101833005CE805120888B4E80512088883E90512F4
:101843000888C3E9051208880DEA0512088882EAA8
:1018530005120888F5EA051208887DEB0512088849
:101863007FEB0512088881EB0512088883EB0512CC
:101873000888A0EB05120888D5EB05120888F4EB5D
:101883000512088810EC0512088890EC05120888E8
:10189300EBEC0512088866ED0512088880EE051248
:1018A300088861EF0512088882B405120888A8B475
:1018B300051208881EB60512088849B6051208885D
:1018C300C3B605120888E7B60512088807B70512DC
:1018D300088851B70512088889B705120888A9B87E
:1018E30005120888DAB80512088809B905120888AC
:1018F3003CB905120888E5B90512088809BA05122A
:10190300088855BA05120888BFBB0512088841BC70
:101913000512088837BD0512088801BE051208881C
:1019230033BE0512088886BE05120888EABE051272
:1019330008884CBF05120888B6BF051208881DC069
:101943000512088830C10512088838C205120888B4
:1019530009C3051208883EC3051208889DC30512F2
:10196300088863C40512088891C4051208881FC635
:101973000512088893C605120888C6C6051208888A
:1019830002C7051208881BC705120888D7C70512A6
:101993000888B4C80512088868C905120888FDC9F3
:1019A30005120888AFCA0512088835CB05120888C6
:1019B30097A406120888E3A40612088851A5061204
:1019C300088872A50612088889A50612088829A620
:1019D3000612088832A6061208887FA6061208880F
:1019E300A8A606120888B2A6061208881EA7061221
:1019F3000888B0A706120888ECA70612088827A84B
:101A03000612088883A806120888B9A8061208884F
:101A130038A90612088882A906120888C3A90612E3
:101A23000888FAA9061208880CAA061208881EAAB2
:101A3300061208883DAA0612088846AA06120888D4
:101A43000EAB061208884EAB0612088877AB061257
:101A53000888FCFA051208883FFC0512088865FC13
:101A6300051208882CA30212088895FE051208881F
:101A7300B4FE0512088876DE06120888ACDE06126C
:101A83000888F7DE0612088842E0061208885E6AB4
:101A930000120888926B00120888CE6B0012088827
:101AA300866D00120888C06D001208883970001214
:101AB30008887970001208880D7200120888AD72C8
:101AC30000120888A1AA021208889C7300120888D1
:101AD300D47300120888147400120888A5750012C4
:101AE30008884D7700120888AA7900120888D879E7
:101AF30000120888047A001208880D7A00120888F8
:101B0300687A00120888FE7A001208885B7E001249
:101B13000888E07E0012088888F3061208889EF37E
:101B2300061208889DFF0412088889C106120888D6
:101B33009EC10612088851C20612088891C2061275
:101B43000888AAC206120888E5C20612088832C3AA
:101B53000612088864C306120888A6C306120888FA
:101B6300B1C5061208883D7F00120888737F0012F2
:101B730008888F7F00120888D17F00120888E17FD0
:101B830000120888EB7F0012088892BD04120888AF
:101B9300EABD041208888EBE04120888A0BF04128E
:101BA300088882C0041208885AC1041208886FC1C9
:101BB30004120888BCC10412088812C204120888DF
:101BC3006FC20412088882C204120888D1C20412A8
:101BD30008884AC304120888FFC5041208889EC6F1
:101BE30004120888D5C6041208881EC70412088880
:101BF3000CC9041208886BC904120888E1C90412CD
:101C03000888C9CA0412088802CB0412088821CBA9
:101C1300041208886CCB0412088882CB041208884B
:101C23008FCB04120888C8CB04120888DACB0412BD
:101C33000888CACC04120888D5CC041208882DCD94
:101C43000412088890CD04120888EBCD041208888A
:101C5300FACE0412088860D10412088891D10412C4
:101C6300088825D204120888AFD20412088877D3D3
:101C730004120888B1D3041208881FD404120888F8
:101C8300CFD404120888F9D40412088803D50412A7
:101C930008880DD50412088829D50412088886D52A
:101CA30004120888BFD504120888DBD504120888FB
:101CB30007D60412088826D60412088861D60412AF
:101CC30008887CD604120888C6D604120888D9D698
:101CD30004120888F4D60412088824D7041208884A
:101CE30041D7041208888AD704120888C0D704127F
:101CF3000888C3D80412088880F20612088898F26C
:101D030006120888F6940612088845950612088874
:101D1300049706120888DD9806120888219906128E
:101D23000888749A06120888BF9B06120888E19BEC
:101D3300061208882B9C06120888AD9C0612088898
:101D43000080041208882380041208881481041276
:101D530008885D8104120888B481041208881582FA
:101D630004120888668204120888D582041208883F
:101D7300668304120888DF8304120888208404120F
:101D83000888598804120888D08A04120888098BA5
:101D930004120888508B04120888838C0412088864
:101DA300CD8F04120888639004120888F4910412FA
:101DB3000888F992041208882994041208888294E6
:101DC300041208884A9504120888CB9504120888DF
:101DD300CE9504120888B59604120888F497041265
:101DE3000888669A04120888F49A041208881B9CCF
:101DF30004120888749C04120888019D0412088840
:101E0300DB9D04120888439F04120888B69F0412BE
:101E13000888008005120888AD8005120888328181
:101E230005120888418105120888CA8105120888AD
:101E33002182051208881D8305120888468305122E
:101E43000888E783051208883A8405120888A58460
:101E530005120888048505120888E4870512088896
:101E63009B8805120888F68805120888B78A051228
:101E73000888678B051208880B8C051208886C8C00
:101E830005120888E78C05120888278E0512088832
:101E9300048F05120888588F051208889A8F051237
:101EA3000888AE8F05120888EC8F051208887F908A
:101EB30005120888DF91051208889C93051208888B
:101EC300E894051208884896051208885797051262
:101ED3000888FB97051208886798051208886F9988
:101EE300051208884AA004120888B9A004120888B9
:101EF30007A1041208884FA104120888A5A104129F
:101F03000888FFA10412088840A204120888CBA203
:101F13000412088820A3041208889FA404120888C6
:101F230015A50412088844A60412088870A6041292
:101F3300088880A70412088891A704120888A7A715
:101F43000412088832A80412088855A804120888C5
:101F530022A90412088844A9041208885BA9041260
:101F6300088881A904120888A3A90412088893AADF
:101F730004120888F5AA04120888A0AC0412088881
:101F830002AD0412088819AD041208883FAD04128B
:101F9300088893AE0412088838AF041208887EAF0D
:101FA30004120888C2AF041208882CB004120888EF
:101FB300ECB004120888CCB204120888E0B304120F
:101FC300088843B504120888BAB60412088856B8BC
:101FD3000412088864B8041208887DB904120888BA
:101FE3002ABA041208887DBA0412088892BA041225
:101FF300088877BB0412088878BC04120888DDBC03
:102003000412088898FC02120888D3FC021208887C
:1020130092FD02120888F8FD0212088869FE021276
:102023000888EEFE021208887CD706120888FBD8BF
:102033000612088834FF0112088845FF0112088838
:10204300E5FF0112088883E60612088891E6061266
:102053000888A8F30612088884FF0212088894FFF0
:1020630002120888A9FF02120888F2FF02120888E8
:1020730040EF06120888C5EF061208882BF00612F7
:102083000888FD7F00120888EE7F00120888F17F20
:1020930000120888F47F00120888F77F001208886E
:1020A300FA7F001208889BCD06120888A9CD061274
:1020B300088823CE0612088807CF06120888DED0C8
:1020C3000612088850F306120888A5AB0612088882
:1020D30012AC06120888C9AC0612088836AD06127F
:1020E30008885DAE06120888D1AF0612088831B0A1
:1020F3000612088882B0061208888BB00612088878
:102103009BB006120888AFB006120888E3B1061226
:10211300088840B20612088853B2061208885DB2D6
:102123000612088871B20612088899B20612088846
:10213300B6B506120888F5B50612088837B6061232
:1021430008884BB60612088864B6061208887CB75E
:10215300061208882EB80612088848B8061208889E
:102163004DEB0612088871EB061208888AEB0612FB
:102173000888C9EB06120888FCEB061208882CECC9
:102183000612088894EC0612088897EC0612088851
:10219300A1EC06120888AEEC061208884DD106128F
:1021A300088875D106120888B6D106120888D4D1DA
:1021B30006120888EFD10612088857D2061208883B
:1021C30063D206120888C2D206120888EED206121B
:1021D3000888FDD20612088821D306120888E2D3A4
:1021E30006120888EFD30612088800D4061208885E
:1021F30012F3061208882AF306120888A6B80612F4
:10220300088813BA0612088819BA0612088830BA61
:102213000612088851BA0612088867BA0612088897
:102223007BBA06120888FABA061208885FBB061240
:102233000888F5BB06120888CEBC06120888DEBCE7
:1022430006120888EDBC061208883AFF03120888B4
:102253005EFF0312088886FF03120888AEFF03128D
:102263000888A9E006120888D0E006120888EEE084
:102273000612088860E1061208882ED40612088820
:1022830047D4061208885ED40612088867D406125B
:10229300088885D4061208888FD40612088899D432
:1022A30006120888ACD40612088833D506120888AB
:1022B300A8D506120888D6D50612088827D606128E
:1022C300088873D6061208888ED60612088898D610
:1022D30006120888A9D606120888EFD606120888BF
:1022E3002FF2061208883CF60412088868F60412D6
:1022F300088886F60412088899F604120888B4F64A
:102303000412088813F70412088841F70412088896
:1023130031FB0412088883FC04120888B5FC0412FC
:10232300088821FD0412088886FE04120888AEFE80
:1023330004120888C3FE04120888D3FE0412088816
:1023430013FF041208885FFF041208886FFF04124A
:10235300088808EE0612088818EE0612088836EE7A
:102363000612088851EE0612088878EE06120888CD
:1023730099EE06120888B3EE06120888EBEE0612F1
:1023830008880EEF06120888CEF206120888C6C91E
:1023930006120888CDC90612088823CB06120888BE
:1023A30053CB0612088883CB06120888B6CB0612D5
:1023B3000888C8CB0612088804CC061208886ACCA1
:1023C30006120888A6CC06120888EDCC06120888E7
:1023D3001ACD0612088846CD061208881EDC06129E
:1023E300088841DC061208885FDD0612088848DE8B
:1023F300061208884BDE0612088844F00612088885
:10240300A3F006120888E1F00612088822F10612EA
:102413000888DD9C06120888F39C06120888A79D8D
:1024230006120888C99E061208889F9F061208880C
:102433003DA0061208887CA0061208888CA006120C
:102443000888B3A00612088805A10612088890A27E
:102453000612088895A206120888B7A206120888F1
:102463003AD00312088846D003120888A3D0031277
:102473000888BBD00312088861D10312088872D17F
:1024830003120888E1D10312088883D20312088853
:102493000BD30312088837D5031208884BD70312CE
:1024A30008885FD80312088816D90312088816DE35
:1024B3000312088803DF0312088895DF03120888D4
:1024C300BADF031208885FE0031208887CE0031276
:1024D30008889DE00312088804E1031208883AE1A2
:1024E3000312088899E2031208883FE3031208885D
:1024F3008AE30312088809E403120888BEE403127E
:10250300088827E5031208888BE5031208881FE66D
:10251300031208888CE603120888C8E603120888A9
:102523003CE70312088861E803120888C6E903122E
:10253300088873EA03120888ABEA031208886EEC72
:102543000312088865EE03120888A4EF03120888B3
:1025530002D7021208888CD702120888EED702121B
:10256300088852D80212088868D902120888E7D965
:102573000212088821DB02120888D0DB02120888C5
:10258300A9DD02120888BDDE021208887FDF02126D
:102593000888A5DF0212088817E002120888E7E01E
:1025A300021208887FE2021208881BE302120888DD
:1025B3004DE70212088853E902120888EAE9021279
:1025C300088845EA0212088896EA0212088815EB81
:1025D30002120888A8EB02120888CFEB02120888BF
:1025E300A7F502120888C3F70212088820F902121D
:1025F300088893FA0212088875FB0212088841FCC6
:102603000212088811DA041208889ADA0412088878
:10261300D9DA0412088855DB04120888CADB0412CD
:1026230008885BDC04120888DADC041208889BDD66
:1026330004120888A3DE041208883BDF041208880A
:102643008AE004120888E9E1041208886FE20412A0
:10265300088853E3041208887CE404120888C5E55B
:102663000412088840E60412088875E604120888F4
:1026730051E7041208881FE804120888E4E80412EA
:102683000888EDE904120888E6EA0412088852EC87
:10269300041208883CEF0412088825F00412088805
:1026A3001DF104120888DDF10412088850F30412A6
:1026B30008884CF504120888E7CB0512088822CC59
:1026C3000512088852CD051208889DCD0512088889
:1026D30005CE0512088866CE05120888B7CE051206
:1026E300088826CF0512088813D0051208889FD0C2
:1026F30005120888D5D00512088811D1051208885B
:1027030038D1051208889BD105120888B6D2051264
:10271300088880D305120888BAD405120888DFD444
:1027230005120888E6D40512088836D505120888EC
:1027330063D5051208880CD6051208884FD60512F2
:10274300088876D705120888B8D70512088803D8F1
:102753000512088839D805120888A3DA05120888F3
:10276300A9DB05120888D7DB0512088827DC0512C8
:10277300088849DC051208888DDC05120888A8DC66
:1027830005120888CCDC05120888F9DC05120888D4
:102793000ADE0512088871DE051208888EE005122C
:1027A3000888D7E00512088801E105120888A6E128
:1027B30005120888E4E10512088803E30512088876
:1027C300E19A051208880E9B051208882E9B0512B4
:1027D3000888389B05120888429B051208884C9B81
:1027E300051208884C9C05120888AB9C05120888C2
:1027F300379D051208884C9D05120888639D0512B4
:10280300088812A40512088832A4051208884BA46C
:1028130005120888A3A4051208882DA505120888A7
:1028230076A60512088892A8051208889BAA0512A5
:102833000888F1AA05120888C6AB051208880EACF1
:1028430005120888A2AC05120888CEAC05120888C8
:10285300B1AD05120888F8AE051208883AB0051222
:10286300088891B005120888E5B00512088842B1BE
:1028730005120888BCB105120888E3B1051208885F
:102883009AB205120888A4B20512088866B3051225
:102893000888DBB305120888E6B305120888A6E4A6
:1028A3000612088850E5061208887FEE0112088890
:1028B3009EEF01120888B9F00112088856F101123F
:1028C30008886FF201120888C8F30112088889F595
:1028D30001120888D2F5011208884DF60112088802
:1028E3006EF60112088871F6011208882DF801129C
:1028F300088883F901120888EFFA0112088819FC85
:1029030001120888A5FC01120888F4FE0112088848
:10291300BEC506120888DCC50612088820C6061242
:10292300088846C6061208886DC60612088885C63A
:10293300061208889DC606120888B5C606120888BE
:1029430057C70612088895C7061208889FC706123C
:102953000888B9C706120888CEC806120888E9C8CD
:1029630006120888F2C806120888FBC806120888EF
:1029730004C9061208880EC9061208887EC9061201
:1029830008881EBD061208880CC1061208881AC1E1
:10299300061208881FC106120888D3FF031208888D
:1029A30057A2021208881EA202120888CDA10212A1
:1029B300088852A002120888D49F021208880A9F2E
:1029C30002120888F29D02120888969D0212088856
:1029D300709D02120888AC9C02120888EF9A0212BA
:1029E30008888B9A021208885C9A02120888599AFE
:1029F300021208882C990212088813980212088878
:102A0300C89602120888EF95021208886B95021285
:102A13000888729402120888CF93021208881693CA
:102A230002120888D4920212088899A9021208880F
:102A330005A90212088836A8021208880EA60212F7
:102A43000888E3A5021208883C9202120888FB91C9
:102A5300021208889E91021208886B91021208885C
:102A630088A502120888FF9002120888CA900212F1
:102A730008886B90021208883A9002120888F3A320
:102A8300021208880F7300120888EE8C021208885D
:102A9300238C02120888D88B02120888CC8B02126E
:102AA30008882B8B02120888EF8902120888348762
:102AB30002120888C084021208887E8402120888E1
:102AC300488302120888DE82021208880C820212EE
:102AD30008886C80021208883280021208887AA360
:102AE3000212088800800212088876FC05000000A4
:102AF30080FB0001363601010001020100010301E0
:102B03000001040106060502000007010034080164
:102B1300000F090401010D0100FF0E080000170258
:102B23000000190100FF1A0100011B0100FE1C0136
:102B330000081D0200001F01000120010001210205
:102B430000002301000F24020000260100012701D9
:102B53000008280200FF2A0100072B0102402C0174
:102B630000002D0100012E0100012F0100FF3001A3
:102B73000B1C310800003A0100083B01000F3C0127
:102B830000010103710301030103010301030103B5
:102B930022030203010310030003000300030003E5
:102BA300000300030003420300032403060300039E
:102BB3000003040312032503230325032303040350
:102BC300040300030003000344030003000323037F
:102BD300000365032100350381030003050300039C
:102BE30000030003000325032303030071003001E6
:102BF30060001100700031022003500480001000B7
:102C0300610000001400630073007200620043005F
:102C13000000130006000000000004001200000082
:102C230000000000000004000400370037003C02ED
:102C330044000000000000000000650000003500B3
:102C430081000000050000008300000003047104FC
:102C53000204600411047004020402040104020467
:102C63001004610400041404630473047204620412
:102C730043040004130406040004000404041204BF
:102C83000004000400040004510464000004000470
:102C93000004440400040004000400046504000468
:102CA3003504810464000504000483040004030262
:102CB300710230016002110270020102020202027B
:102CC3008002100261023A00410063027302720241
:102CD30062024302000213023800000200020402EF
:102CE3001202000200020002000204020402370082
:102CF30037003C0244020002390000020002650270
:102D030000023502810200020502820283020002F0
:102D130001017101010101011101010131010101F0
:102D230001018001100161013B0014006301730183
:102D33007201620143010001130106013D013500E7
:102D4300040112010001000100010001040104015A
:102D5300330133013C01440132013600000100011B
:102D63006501000135008101000105018201830134
:102D730000011A2538252025722426253E252625DF
:102D83004A252C25722426253E250000000000003C
:102D930000000000000000000000000000003225D9
:102DA300722400000000000000000000000000008A
:102DB3000000000000000000000000000000000010
:102DC3000000000000000000000000000000000000
:102DD30003002001F782000000002001F9820000B7
:102DE30001002001F582000002002001F6820000AC
:102DF3000040420136820000040042015A80000074
:102E0300050042018B80000006004201D1810000D1
:102E130007003001F8820300000021038311000042
:102E2300541E1300DC1D0100541E02005E1D03002E
:102E3300641D04006A1D0500701D06007C1D300022
:102E4300A01D31009A1D3200AC1D3300B21D3500A8
:102E5300B81D3400BE1D3600C41D1100D01D140062
:102E6300D61D15008E1D1F00941DFFFF00003600A8
:102E73000100060000000F00000000000000000039
:102E83000000000003FFFF00000403FFFF0000FF3A
:102E9300FF0FF4010005C4040320000100000B0030
:102EA3000000000000000003010F0001D80F06021C
:102EB3001008FC0F0B1A10104E0F02DE0F05F00F57
:102EC30007E40F0CC00F0DCC0F647A0DFF00000751
:102ED300ECFDFDFDECDCDCCCBCACAC9C9C8C7C7CCC
:102EE3006C6C5C5C5C4C4C3C3C2C2C1C1C03EAF571
:102EF300E5D5D5C5B5A5959585857575656555558F
:102F03004545353525251515058814B8148E1494B3
:102F130014B214A614A014BE14C414CA14D6149A5A
:102F23001482147C1400160F00000B150B02000210
:102F3300220F3300000E5A6967426565416C6C6964
:102F4300616E6365303901030507090B0D0F00023C
:102F53000406080A0C0D7E15901596154C149C1545
:102F630046145214DE15FC150216E415F015EA1585
:102F730086138013BC13C213B6136E130C0E020B0D
:102F8300040B0A0708000F00011916181616182358
:102F9300030000034D4C4651181A25050230301723
:102FA300181921301B1D1F30303016181920231A11
:102FB3001C1E30003C40423A3F3F392F4730AC148F
:102FC300D014F615DC14E214D215A215A815B41505
:102FD300AE15020402010101010902921398138C38
:102FE30013C8130000000000009E13B013E8030091
:102FF3000000BE040AE803000000003C003C007F20
:10300300000E00010A0303080900100003FF1E1E3F
:1030130008050C280C040404100508150C09E0FA33
:10302300A3E0F9EA22E4F0A3F0A3F022A3123028EC
:10303300A3F02212303A22E0F508E4F509F50AF587
:103043000B2274091208D37F0402061D7401F09049
:103053000A08E0640F2274021208D37F0602061DD9
:10306300A3A3E024F5C3941222900A2812652C7AB4
:10307300147B0022C082C083900523124FA26006F6
:10308300125C43121A889005201248877408F0A333
:10309300E4F0A3F0900598F0900525F07C0BFDF982
:1030A3007A267B051219BC7C0B7D0079007A317B73
:1030B300051219BC02478874F712040374F7120946
:1030C3004EEAFEEBFF123E23740512316F7403F0D8
:1030D30012325C124AA1EE2430FCEF3400FD8C82E4
:1030E3008D8312329312315A600BEE242E123E2638
:1030F30074FFF0A3F0EE242EEF34001C1CFD8C8231
:103103008D83A3E0C0E08A828B83124481D0E012D6
:10311300315A88828983124ECD2403125995122481
:103123000C7408120B217403F0900A1D1206EC7440
:1031330002120B21AC82AD837903EEFAEFFB121579
:103143006074021208D3E9F5087007EEFAEFFB1278
:103153001440A908023EC4125BA5124A928A828BCC
:1031630083E8F0A3E9F08C828D83E022F0A3E4F0FE
:10317300EE240D12581A2274F1120403EAFEEBFF37
:103183008C088D09890A12325C124A89740F120B5A
:1031930021123281E824FF18E934FFF988828983F8
:1031A300E50A123273900A22123270900A21123207
:1031B300707411120B21123281EE2404FCEF3400DF
:1031C300FD880B8A828B83E0F50C8C828D83E0254E
:1031D3000CC3950B125BA1E8F0A3E912465AA3A313
:1031E300A3A3A3A3A3A3E064037008123264F0A310
:1031F300E4800AEE240EF582EF125DBCA312317255
:103203007409F0750C26750D05750E00780C1208FF
:10321300BC12324F1219B074031208D3750CFF7528
:103223000DFF780C1208C0AC08AD097903EEFAEF74
:10323300FB12156074021208D3E9F5087007EEFA61
:10324300EFFB121440A9087F0702061D7C0B7D00CB
:10325300EE241BFAEF3400FB22EE2402FAEF3400D3
:1032630022EE240EF582EF12581D740122123293BE
:1032730012327722F0E824FF18E934FFF922E0F54F
:103283000CA312329312327788828983E50CF022E1
:10329300E0888289832274F0120403EAFEEBFF893B
:1032A3000B8C0E8D0F750A00A2AFE433F50CC2AF81
:1032B30090053C803F12337F50371233976403707D
:1032C30030EE24F9FEEF34FFFF850882850983A3DE
:1032D300A3E02405FCA3E03400FDEEFAEFFB122487
:1032E3000CEE24FF1EEF34FFFF7410250AF50A15B8
:1032F3000B12460A1265D8E50B6006E5084509700E
:10330300B4E50CA2E092AFA2AFE433F50CC2AF90E8
:10331300053C80252402FAE5093400FB8A828B836D
:1033230012419D1233A48A828B8312338CA3A3127E
:1033330033A4050A150B12460A12461F60271233DF
:1033430097640270F112337FE50840C81246F9E52D
:1033530009123C2FA2E550DE850E82850F8374018E
:10336300F0E50B70D1E50CA2E092AF8E828F83E57E
:103373000AF0EE24FFFAEF34FFFB803CE508124429
:1033830090E5091235E9A2E62212339022125F89F1
:10339300A3A3A322850882850983125F831255C6DE
:1033A30022E08E828F83F0EE24FF1EEF34FFFF2294
:1033B30012163274041208D37F0802061D74EB122E
:1033C300040374F612094E89148A138B128518822A
:1033D300851983E4F0900542E0C394084005750F16
:1033E300078003E0F50FE50F33333354F8F8900A01
:1033F30007E0282437F50CFA7B001219D48A088BCE
:1034030009EA45097003023565EA2402F50AEB343B
:1034130000F50BEA250CF8EB3400F9850A82850BDD
:1034230083124AAEEA2404F510EB3400F51185103B
:1034330082F583E4F0900A07E0FAF8C3E498F8957C
:10344300E0F9850A82850B83E028FEA3E039FF902B
:103453000A05123573750E00780C1208BC8A0CAC81
:103463000C7D00EEFAEFFB1219B074031208D3853A
:103473001882851983AC82AD83A90FEE24FFFAEF7E
:1034830034FFFB1213568A0C8B0DAE0CAF0D8E82DC
:103493008F83E41233A9E512C454F0F9900599E03F
:1034A300C4333354C0F8900A01E0A2E0E4331313A9
:1034B3004849440F1233A5E513C454F045148E82D2
:1034C3008F83F0EEF8850A82850B83E0FA851082FC
:1034D300851183E02AC398F0850A82850B83EEF079
:1034E300A3EFF0E508240E125DB8A3F0E508240D60
:1034F300125DB87409120B21E4F0750C31750D05DA
:10350300780C1208BC7C0B7D00E508241BFAE50946
:103513003400FB1219B074031208D385188285197D
:1035230083E0600EE508240EF582E509123C2F4482
:1035330008F0E4F50AF50B780A1208C07403120BBD
:1035430021AE82AF83121548EEFCEFFDAA08AB094A
:1035530012156074021208D3E9AA08AB09600712B6
:1035630019DA7A007B00740A1208D37F0D02061D54
:10357300E0F50CA3E0F50D2274F31204038A0A8B21
:103583000BA2AFE433F50CC2AF75080075090090C8
:10359300053C802C1237C45024850A82850B83A3F3
:1035A300A3126A238E828F83A3A3125C4612154E45
:1035B300E9600A1235DFC2E6F08E088F091237B9C7
:1035C300123A8070CFE508450960061236A3D2E6A9
:1035D300F0E50CA2E092AF7F0502061D1235E3224F
:1035E300EE2411F582EF124647E02274F012040331
:1035F300EAFEEBFF8C0C8D0D750E00A2AFE433F5E4
:103603000FC2AF75080075090090053C8025850A37
:1036130008850B091236A3D2E4F0E5081246F9E552
:1036230009123C2FD2E7F0E50A24FBF582E50B34BF
:10363300FFF583E0F50AA3E0F50BE50A450B6043CC
:10364300E50A124490E50B12369D50DB850A82850C
:103653000B83A3A31206ECAC0CAD0DEEFAEFFB1239
:10366300155474021208D3E960BDE5084509609E4C
:10367300E508240DF582E509123A7270061236AE9A
:10368300D2E4F0E50FA2E092AFE508450960061227
:10369300143A750E01A90E0233BB1235E9A2E722D3
:1036A300E508124490E5091235E922850882850967
:1036B30083125F83E02274F212040374FE12094E34
:1036C300750C00750D00851882851983E4F0A3F04D
:1036D300A2AF33F50AC2AF90053C1267EC803BEE14
:1036E30024FBF582EF34FF1265D6780C1208C0EE86
:1036F300FCEFFD7A3C7B05121A0A74021208D3EE22
:10370300FCEFFD851882851983AA82AB831219F811
:10371300AE08AF09900542E014F0EE4F602C12376B
:10372300C4501EEE240BF8EF3400F988828983E03D
:1037330024FFF0A3E034FFF088828983124FA26054
:103743009E8E0C8F0D1237B98090E50AA2E092AFDE
:10375300900542E06031900A08E0640F600690052E
:1037630098E070237A1A7B0512163E9082D91206CE
:10377300E87A1A7B0512163274041208D38008748F
:10378300F0124AC312142E851882851983AA82ABBC
:10379300831219FE8A0A8B0BAE0AAF0BEE4F60132E
:1037A3001213621235DFA2E28E828F83A350D0748C
:1037B300E980CE023059EE24FBF582EF34FFF58326
:1037C300221235E3A2E72274F7120403EAFEEBFFA9
:1037D30012136212447E12057EE96401900A24707A
:1037E3000AE02401F8A3E0340080031254B0F9EE98
:1037F300240B123E26124AAE900542E07021900A35
:1038030008E0640F70197A1A7B0512163E9082D96C
:103813001206E87A1A7B0512163274041208D3E5ED
:10382300A8F8C2AF900542E004F0E802546F74F7C1
:10383300120403EAFEEBFF123867F0121362EEFC88
:10384300EFFD7A3C7B05121A04E5A8F8C2AF900598
:10385300421241E4900A08E0640F700579081215DA
:1038630000024B761235E3C2E42274F712040374A8
:10387300EA12094EEAFEEBFF900A01E06046851862
:10388300828519837401F0120B21E412394E120B55
:1038930021AA82AB8312240C8E828F831236B4C08A
:1038A300E0740A120B21D0E0124EBF740B120B21ED
:1038B300AA82AB83121578851882851983AA82ABF5
:1038C300831229827416023EC674F7120403EAFEB9
:1038D300EBFF12134A74DC69601E74DD69601974AE
:1038E300E469601474F369600F74DE69600A74DF5D
:1038F30069600574DB697007EEFAEFFB12150602C7
:103903004B7674F712040374EB12094EEAFEEBFFD5
:10391300851882851983740612394E120B21AA82E7
:10392300AB8312240CEE2408FCEF3400FD740A125E
:103933000B21AA82AB83121578851882851983AA75
:1039430082AB831229827415023EC6F0EE2413FC67
:10395300EF3400FD74022274F712040374F71209A2
:103963004EEAFEEBFFEE2430123C2C6070124285CF
:10397300851882851983AA82AB8312240C740812DA
:103983000B217403F0900A1D1206ECEE242E123E56
:10399300261206EC900A30E0F97404120B21AC8273
:1039A300AD83EEFAEFFB12135074041208D374DCE8
:1039B30069602374DD69601E74E469601974F369D6
:1039C300601474DE69600F74DF69600A74E869600B
:1039D3000574DB697007EEFAEFFB121506023EC4AD
:1039E30074F21204038A088B09750A00750B0075BB
:1039F3000CE7A2AFE433F50DC2AF90053C80078E10
:103A03000A8F0B1237B9123A8060351237C450EF60
:103A1300123A6C70EAEE2432123A788A828B83A3CC
:103A2300A3E06870DA780A1208C0EEFCEFFD7A3C76
:103A33007B05121A0A74021208D3900542E014F0AF
:103A4300E50DA2E092AFEE4F6013EEFAEFFB121317
:103A53006279F0EEFAEFFB121506750C00A90CAAB9
:103A630008AB0912150602305EEE240DF582EF1243
:103A730035E9640122F582EF1235E9F822E0FEA36D
:103A8300E0FFEE4F2274F412040374F712094EEAB6
:103A9300FEEBFF8E828F83A3E064F37003023B3659
:103AA3008E828F83A3E064DF7003023B368E828FA6
:103AB30083A3E064E8607C8E828F83A3E064DB6091
:103AC300721213A4E9F5087062EE240E123C2C6006
:103AD3005A123B401213ECEA4B60507408120B214C
:103AE300123B4B1206EC7508FF7509FF78081208A4
:103AF300C08E828F83A3A3A3A3A3A3A3A3E0F9747C
:103B030004120B21AC82AD8312135074041208D338
:103B1300E9F50874F36508601274DF6508600C74D6
:103B2300E86508600674DB6508700F8E828F83A3D7
:103B3300E508F0EEFAEFFB1213B0023045EE240F66
:103B4300FAEF3400FB790922740212637574FFF0F3
:103B5300A3126223A32274F1120403EAFEEBFF759E
:103B630008008E828F83A3A3A3A3A3A31230634071
:103B7300037508E88E828F83A3A3A3A3A3A3A3A3A0
:103B8300A3A3E0C3941040057508E880138E828FC9
:103B930083A3A3A3A3A3A3A3A3A3A3E0640F600B83
:103BA300900575E0540870037508E8EE240B123A8B
:103BB300788E828F83A3A3A3A3A3A3A3A3A3A3E02A
:103BC300C398500DEE240B123C2C640F6003750850
:103BD300E8900A21E0F47003A3E0F470037508ECA5
:103BE3007A237B00121A829005231253F89005233F
:103BF300124FA260278E828F83A3A3A982AA8389EF
:103C03000C8A0D750E00780C1208BC7C237D001203
:103C13005C431219B074031208D3800375081A02A7
:103C2300324834FFF509EE240DF582EF1235E9220F
:103C330074F5120403EAFEEBFF8E828F83A3A3A322
:103C4300A3A3A3A3A3E0900A0812623E900A23123F
:103C53006236900A03126258900599F0F912228C89
:103C6300900599E0601AEE2404FAEF3400FB7950D2
:103C7300122274EE2406FAEF3400FB79E112227467
:103C830090059812304F600474018001E49005257B
:103C93001262431208BC7C0B7D007A267B05121945
:103CA300B074031208D3EE2418124D341208BC7CEE
:103CB3000B7D007A317B05024AC974F7120403EACB
:103CC300FEEBFF8E828F83A3E07006125C43121318
:103CD300AA8E828F83742C124AC3121518024B7654
:103CE30074F7120403EAFEEBFF900523124FA26060
:103CF3000D125C43900523E4F0A3F0121A888E8220
:103D03008F837408124AC3122982024B7674F61207
:103D13000403900598E06013900525E0700D123DB3
:103D23003012135CEA4B60031214408015900A03AF
:103D3300E0FB900A23E0FA900A08E0F922740912E2
:103D430008D37F0202061D74F412040374E71209F8
:103D53004EEAFEEBFF750B018E828F83A3A3A3A311
:103D6300A3A3A3E0A2E2507AEE242BF582EF340062
:103D7300126A21123E1A121368E97066908245E0B6
:103D83006401700DEE241B124A837005750B0080CD
:103D930051123E2D1208BC7C0B7D007411120B21B5
:103DA300AA82AB831219B074031208D3121548E91F
:103DB300FA740E120B21858208858309780812088C
:103DC300C075083075090078081208C0EE242B125C
:103DD3003E261206EC125B867901121566740612F2
:103DE30008D3851882851983741012394E120B215A
:103DF300AA82AB83122400EE242B126521740B12CA
:103E03000B21124AAE740D120B21E50B123E3E122A
:103E130029827419023047EE2413FAEF3400FB228F
:103E2300EE240EF582EF12581D22EE240812624B87
:103E330022851882851983EAF0A3EB123E422212EF
:103E43006375AA82AB8322C082C083900599E06028
:103E5300031215BA024788C082C08390059074ECA0
:103E6300F0A3742FF0A37473F0A3742FF0A374DE84
:103E7300F0A3742FF09011AF744FF0A3742CF09053
:103E8300057A7444F0A37413F09011997474F0A339
:103E93007413F090119B747AF0A37413F09005756A
:103EA300E04402F0024788C082C083EAFCEBFD795C
:103EB30003024F39C082C083EAFCEBFD7905024F50
:103EC3003974091208D3024B76C082C08379080281
:103ED3006060C082C08374FE12094E800D7A3C7B01
:103EE300051219FE123E3412153C90053C124FA2E6
:103EF30070EB90053E124FA2600F7A3E7B051219BC
:103F0300FE123E3412153C80E990053CE4F0A3F028
:103F130090054212302990054F7464F0A37414F095
:103F23007402800274111208D302478874F61204D3
:103F330003E9FF8F0874B62508F582742F1251899F
:103F4300FE8E08FA7B001219D4EA4B6015EA2508A5
:103F5300124856124AAE8A828B83A3A3A3A3E4F02A
:103F630080297A027B001219D4EA4B601A8F0874F5
:103F7300A02508F582742F12434BF0A3741AF09016
:103F83000570E0F91219E07A007B00023D45E9FD76
:103F930074062DFCEAA2E0501EEC75F00A84A8F02A
:103FA300E86014740A2CC398FCE8C39405400474B5
:103FB3000A2CFC740B2CFCEDC3941340047814807E
:103FC300027806E82C2409F8E43400F97A0A7B0025
:103FD3001202B2E8F9020885C082C083900575E039
:103FE3005402600A122988E9600479018002790089
:103FF300024788C082C083900575E0540260169022
:104003000542E0700C124F9F600B124485A2E750EB
:1040130004790180027900024788C082C0839082BC
:1040230043E0F8900544E0C39850051219D4800486
:104033007A007B00024788C082C08312153C790056
:1040430002478874F712040374FE12094E8518821E
:10405300851983EAF0A3EB1241C0A3A3A3A3A3E0B2
:10406300600A14605D24FE606602412E900A08E037
:10407300640F6018121512E970128518828519836E
:10408300125C4690119D12448112057E900A30E025
:10409300C0E0851882851983124E9DD0E01241C07D
:1040A3007414126371126A237A3E7B051219F8E5C0
:1040B300A8F8C2AF9005441241E47920121500021A
:1040C300490C851882851983125F8B741580D385FB
:1040D3001882851983124198A3A3E0604E85188244
:1040E300851983E02402F8A3E03400F988828983E8
:1040F3001267F2E0C0E0851882851983E0FCA3E033
:10410300CC2406F582EC123E29D0E0125BC68882ED
:1041130089831253F88518828519831244B285184E
:104123008285198360141241AB404B85188285192F
:1041330083AA82AB8312153C80851241AB502212B5
:1041430041B4FA851882851983A3E0C82406F58251
:10415300E8123A7B74D428F582742F1251896A606D
:104163001585188285198312419DE0640870BC127D
:1041730041B4640870B51241B4141241C8240AC092
:10418300E0851882851983124481D0E01241C80466
:104193000240A5E0F8A3124EE3221241A1221246E7
:1041A3007CC82406124644221241A1E014C3940998
:1041B30022851882851983123390A3E0221241D5F8
:1041C300F5838882221241D5C82406F582E8123588
:1041D300E92212637512467C22E5A8F8C2AF900566
:1041E30043E004F0E8A2E7A2E792AF22C082C083D3
:1041F300900547124FA26008125F8C12057E800261
:10420300790002478874F7120403EAFEEBFFEE24F9
:104213000D12326712481DF8A3E0F9123E23124A29
:10422300AEEE2435123C2CC0E0EE2413123E26D011
:10423300E0F0EE2436123C2CC0E0EE2414123E26AD
:10424300D0E0F0EE2438123C2CC0E0EE2418123EED
:1042530026D0E0F0EE242F123E261206EC12428501
:10426300EE2431F582EF12461A1215607402120819
:10427300D3E9F5087007EEFAEFFB121440A9080220
:104283004B76EE2426FCEF3400FD22C082C083125D
:104293001512E96004792080027901024788C082FF
:1042A300C083EA124490EB123C2FD2E0F00247881D
:1042B300C082C083124344123A72701112435340B6
:1042C3000C8A828B83A3E0F91215068071EA1246E9
:1042D300F9EB123C2FA2E650128A828B83A3E0F9FA
:1042E30090119F12448112057E8053124344123A67
:1042F30072700D12435350088A828B837430803559
:104303008A828B83A3E0641B8A828B83700474226A
:104313008023A3E0700F124344123A7B74AB28F559
:1043230082742F800D124344123A7B74A028F582C5
:10433300742F12434BF0900570E0F91219E0024715
:1043430088EA240DF582EB2212518D8A828B832217
:10435300EA2410F582EB1235E9A2E32274F7120482
:1043630003E9FE124F9F700302447BEE6010741B3F
:104373006E7012125B8FE064057003024449125F92
:104383007BE402444D74E96E705B1244A7700B1218
:10439300298EE960051244C0605B9005451244A470
:1043A30090054560391244C3900545700B1244A42F
:1043B30014F01223AC02447B1244B2C2E7124662E9
:1043C300240DF582E81265D0700C900545E0F8A342
:1043D300124485D2E2F012449512057E8076125F74
:1043E3007E74E9806574E16E703F12298EE9605630
:1043F3001244C07051900A2AE0C0E01254ADC824A0
:1044030012F582E8123E29D0E0F0900A19E0C0E0EC
:10441300900545124196124196D0E0F0900A19E0BA
:1044230004F07901122394804F741C6E7018900568
:1044330045125C469011A512448112057E900545F4
:10444300E4F0A3F08032125F7BEEF0900545125C3E
:104453004612142E124633E054806010900A30E066
:10446300F91222B0900A2FE0F91222A4900545E434
:10447300F0A3F07910121500024B769011A3125F8E
:104483008522E0C8124490E81235E922E82411F5A8
:104493008222900545E0FAA3E0FB90119B125F8511
:1044A30022E0F8A3E0C82412F582E81235E922E0FD
:1044B300F8A3E0C82410F582E81235E922900545F7
:1044C30012463AE054042274F4120403750A007588
:1044D3000B00A2AFE433FFC2AF124F9F600302454C
:1044E300C212447E12057EE94410F890053C80090F
:1044F30085080A85090B12460A12461F70030245F6
:10450300C21236A3586870E8780A1208C0AC08AD26
:10451300097A3C7B05121A0A74021208D3900545E6
:10452300E508F0A3E509124662124490E812369DAD
:1045330050030245C9900543E014F0EFA2E092AFA7
:10454300900545E0240EF8A3E03400F988088909B2
:104553008882F583125C469005451241BAF912131D
:10456300F2E9900540F0124658E054806018125466
:10457300ADC824131246171222B01254ADC8241426
:104583001246171222A4124633A3E0540160669028
:104593000540124FA2604912464C604412464CF843
:1045A3007900900540125C461202BAE8C0E0124658
:1045B30027D0E0124667C3941340117402800EEFB4
:1045C300A2E092AF803E90054202453BE4C0E090FA
:1045D3000546E0C8241AF582E8123E29D0E080108F
:1045E3001246277401124662241AF582E812326ACF
:1045F300F07903800C9005451244B2A2E1B3E43391
:10460300F912239402304AE50824FBF582E50934C4
:10461300FFF58322F582E81235E9F9221265DCE51C
:1046230008450922125BB62419F582E812581D22A7
:1046330090054512463A2212467CC8240E1246447F
:1046430022F582E83400F58322125BB62418F58242
:10465300E81235E922A3E4F0850882850983221252
:104663004674C822124674F5838882A3A3A3A3E0E9
:1046730022F090054512467C22E0F8A3E02274F76D
:10468300120403EAFEEBFF121536EE1246F9EF129F
:104693004359400A123A6C7005908241800390821C
:1046A30042E0F9EEFCEFFD7A3C7B05121A10E9605B
:1046B30034EEFAEFFB9011A112448112057EEE2431
:1046C3000E1246FE70101241DCEE240E12481570D5
:1046D3002112143A801CEEFAEFFB901199124481D7
:1046E30012057E800D8E828F83A374F1124AC3124A
:1046F300142E024B76E82410F58222F582EF123550
:10470300E9540422807874F7120403EAFEEBFF797C
:1047130000900575E05402700AEE24331246FE60E1
:104723000279E8900575E05460700CEE2433123C76
:104733002C5402600279E88E828F83A3A3A3A3E0A3
:10474300C39475400279E8EE2431123C2C700CEED0
:10475300242E123C2C700479F58009E9700312149D
:104763001CE96007EEFAEFFB121506024B76C082D6
:10477300C0838A828B83740DF01229828007C082E2
:10478300C08312143AD083D08202088574F41204D1
:1047930003EAFEEBFF8E828F83E4F0A312481D54DD
:1047A300049082417012E0F8900543E0C3984012F0
:1047B30079F112150602304AE0F8900542E0C398F9
:1047C30050EEEE24331248156036EE2437123C2C9B
:1047D300C394054039EE2433123C2C5405702F7AD0
:1047E300497B0512163EEE2437123E2612303678E8
:1047F300081208B87A497B0512163274041208D3DA
:10480300EEFAEFFB900570E0F91219E080A779E862
:1048130080A012581AA3E0540122F0EE243312357B
:10482300E62274F6120403E9FE2451FAE43400FB91
:104833001219D4EA4B6015EE8A828B83A3A3A3A338
:10484300F0EA2451124856124AAE80047A007B00E3
:10485300023D45F8EB3400F98A828B83A3A322023D
:104863004781C082C08390056CE4F090056FF0909F
:1048730005581248877402F0900561124887740145
:10488300F00247887400F0A37415F0A32274F512A4
:10489300040374F112094E8518828519837402F09A
:1048A3007401120B21E9F060047AFF7BFF7402129A
:1048B3000B211253F8750864750905750A00780809
:1048C3001208BC7C0B7D007407120B21AA82AB83F8
:1048D3001219B074031208D3851882851983AA822A
:1048E300AB83122982740F024ACE74F71204037445
:1048F300FE12094E851882851983740AF074011219
:104903000B21E9123E3E1229827402023EC674F064
:104913001204031263FC120AC47808790C120313FD
:1049230078081208B87A5B7B050233B374F4120477
:104933000374C612094E900A08E0640F60108518CC
:1049430082851983742E1253FE12151880277A520A
:104953007B0512163E12306C1202BA88088909E4EC
:10496300F50AF50B78081208B87A527B051216324D
:1049730074041208D3743A02304774F512040374B2
:10498300F712094EEAFEEBFF8E828F83A3E0F50850
:104993006003024A6D124A806008E0640360037595
:1049A30008E8EE2426123E261230655034E50860EE
:1049B30003024A6DEE2426FAEF3400FB79E112225A
:1049C30074EE2431FAEF3400FB7950122274124A48
:1049D300807014EE2428126521900A17124AAE80C3
:1049E300187508E8024A71900A1774FEF0A30412BE
:1049F3004A977A0E7B0A12240CEE241B123E3012C5
:104A030008BC7C0B7D007A647B051219B074031219
:104A130008D312326412316F7402124A97851882D6
:104A2300851983AA82AB83122400EE2431125973B1
:104A3300124A898A828B83E8F0A3E912481D12592E
:104A4300891208C07402120B21AC82AD8379831AD8
:104A53001AEFFB12156074021208D3E9F509700707
:104A6300EEFAEFFB121440850908E508600B1269A2
:104A7300937417124AC31215187409804EEE24302A
:104A83001235E6640222FB8A828B83124A92221237
:104A93004AB4F922F0EE2428FCEF3400FD22FB8A0D
:104AA300828B83124AB4F98A828B83E8F0A3E9F0FC
:104AB30022E024FFF8A3E034FF228E828F8374293F
:104AC300F0EEFAEFFB221219B074031208D37F033E
:104AD30002061D74F612040374F712094E90056F53
:104AE300E070457401F0F912235E851882851983FD
:104AF300AA82AB83121542750864750905780812FA
:104B030008C075080175090078081208C0900A1DCD
:104B13001206EC7406120B21AC82AD837A0379057D
:104B230012156674061208D3023D4074F71204038B
:104B3300EAFEEBFF79011223648E828F83E0642007
:104B43007004A374EBF090056FE0A2E25003C2E29D
:104B5300F0E0A2E15008124D72121476800C8E829E
:104B63008F83742A124AC31215188007EEFAEFFBDB
:104B73001215AE7F0102061D74F412040374FE12B3
:104B8300094EEAFEEBFF79011223647A527B051288
:104B9300163E7A5B7B0512163E124EA98518828556
:104BA3001983124ED6E0F50B70158518828519838B
:104BB300AA82AB8379531222741265C21222741231
:104BC3003E2D1208BC7C0B7D007A647B051219B064
:104BD30074031208D3851882851983125C46A90BC6
:104BE30012147090056FE0A2E1500A8E828F83A3A6
:104BF300E0F912147690056FE4F074020230477402
:104C0300F7120403EAFEEBFF8E828F83A374EBF0AB
:104C130090056FE0A2E1500579EB121476EEFAEFFE
:104C2300FB1214A6024B7674F7120403EAFEEBFFA1
:104C330079011223647A527B0512163E7A5B7B0557
:104C430012163E90056CE4F090056FF07AFF7BFF3F
:104C53008E828F83A3E0F9121470024B7674F712DD
:104C63000403EAFEEBFF1214A0024B6F74F7120465
:104C730003EAFEEBFF79011223648E828F83A3A3E1
:104C8300A3A3E06003E4800274EB124CC05003C2A0
:104C9300E2F0E0A2E15008124D721214768014A2E1
:104CA300E050108E828F83742AF0A374EB124AC3F0
:104CB300121518EEFAEFFB121452024B768E828F06
:104CC30083A3F090056FE0A2E22274F6120403EAD4
:104CD300FEEBFF90056FE0D2E1F0790112235E8EC7
:104CE300828F83A3E0703B121548E9FAEE240D127C
:104CF3004D341208C075080175090078081208C000
:104D0300EE240B123E261206ECEE2402FCEF3400D6
:104D1300FD790512156674061208D3E98E828F8316
:104D2300A3F08E828F83A3E06004F9121476023D10
:104D330045F508EF3400F50978082274F7120403E7
:104D4300EAFEEBFF79011223648E828F83E06420F5
:104D53007004A374EBF090056FE0A2E25003C2E28B
:104D6300F0E0A2E15006124D72121476024B76C2A5
:104D7300E112699EA3E0F92274F7120403EAFEEB41
:104D8300FF79011223647A527B0512163E8E828FBD
:104D930083A3A3A3A3E06003E4800274EB124CC0DB
:104DA3005003C2E2F0E0A2E15006124D72121476F3
:104DB300024CB674F7120403EAFEEBFF79011223E7
:104DC300648E828F83A374EB124CC55003C2E2F04E
:104DD300E0A2E15006124D72121476024B7674F77C
:104DE300120403EAFEEBFF7A527B0512163EEEFA3B
:104DF300EFFB1214CA024B6F74F7120403EAFEEBC3
:104E0300FF7A527B0512163EEEFAEFFB1214CA022A
:104E13004B7674F712040374EF12094EEAFEEBFFAC
:104E2300125B867A0E7B0A1223FAE9606885188280
:104E33008519837409F07401120B2174EFF0124E7B
:104E4300A9F87402120B21E8124ED6A3A3E0C0E026
:104E53007404120B21D0E0124ECD640870158E82BB
:104E63008F83A3A3124E9DE0C0E07405120B21D0E3
:104E7300E080067405120B21E4124EBF7406120B78
:104E830021AA82AB83121578851882851983AA8299
:104E9300AB831229827411023EC6125BB92407F553
:104EA30082E812581D2212597DFB8A828B83126578
:104EB3002C88828983E0FCA3E0F9EC22124EC32202
:104EC300F0EE2408FCEF3400FD22124ED1221262D0
:104ED3002CE022F0A3E9125BA5124EE022E0F8A336
:104EE300125F8CA3A322C082C0831215BA02478823
:104EF300C082C08390058C740CF0A3742FF0A3744C
:104F0300C1F0A3742FF09011A97413F0A3742DF0C2
:104F1300A374B1F0A3742CF0900578746AF0A374B1
:104F230014F0900575E04401F0024788C082C08305
:104F3300EAFCEBFD7902121524024788C082C08384
:104F4300790602606074F612040374FE12094E902F
:104F53000571124FA260077A717B0512153C90050B
:104F630077E4F090062B124FA2602C800D851882F7
:104F7300851983AA82AB8312153C900570E0F91260
:104F830019EC8A088B09A808A90985188285198351
:104F9300124AAEE84970D67402023D4290054512AA
:104FA300652CE8492274F6120403E9FA7B009005A4
:104FB30070E0F9121A16023D4574F712040374F0F7
:104FC30012094EEAFEEBFF89088E828F83E0F874A4
:104FD3007F28F582742F125189C0E07401120B21CE
:104FE300D0E0F0640B700D8E828F83A3E9F012156D
:104FF3009C0250C1E070030250C1640C6003025074
:10500300AD741A6508700B7404120B21E4F0A3024B
:1050130050AC7404120B21EEF0A3EF125BBEC0E0A0
:105023007403120B21D0E012621F120AFE740612DF
:105033000B21120B0A8E828F83A3A3A3A3A3A3A383
:10504300A3A3126528740A120B21E8F0A3E91258EE
:105053003A6009851882851983E48012EE241212BE
:105063003A78900A2AE0C398851882851983F0E07C
:10507300C0E0740C120B21D0E0F0EE2415123C2C8E
:10508300C0E0740D120B21D0E0F0EE2416123C2C7C
:10509300C0E0740E120B21D0E0F0EE2417123C2C6A
:1050A300C0E0740F120B21D0E0F07402120B21E563
:1050B30008F07401120B21AA82AB831229827410A7
:1050C300023EC6C082C083900577E07004790180F8
:1050D300027900024788C082C083900577E06403A9
:1050E300700479018002790002478874F612040380
:1050F300900577E0C333F8E433F974A728F5827495
:105103001139F583125608C2E7F0C333FCE82CF5D6
:1051130082E9123E29A3E493FEC333FCE433FD7416
:10512300A72CF58274113D126A21EC4D6005EE90B7
:105133000577F08A828B83E0C333FCE433FDE82CEC
:10514300F582E93DF583E493F508C4540FC333F8BE
:10515300748628F5827405123E29124FA270051237
:10516300158A801BE508540FC333FCE82CF582E94C
:10517300125189C0E0740193F583D08212057E0237
:105183003D45F582742F12518D22124647E4932236
:1051930074F012040374FE12094E890FEAFEEBFF4A
:1051A300890874952508125185FA7B001219D48A4F
:1051B300088B09EA4509603D8A828B83E50FF0A3DA
:1051C300E4F08E0C8F0DF50E780C1208BC850F0AD7
:1051D300748A250A1252A7EA2402FAEB3400FB125E
:1051E30019B074031208D3AA08AB09900570E0F94B
:1051F3001219E08012851882851983E50FF0791A58
:10520300AA82AB8312150674020233B874F2120435
:105213000374FE12094E890C8A088B09890A749556
:10522300250A125185F50DFA7B001219D48A0A8BCF
:105233000BAE0AAF0BEE4F60548E828F83E50CF0FA
:10524300A3E4F0850D0AEE250AF8EF3400F98E8207
:105253008F83A3A3124AAE8E828F83A3A3A3A3E457
:10526300F0F50A78081208BC850C08748A25081220
:1052730052A71232531219B074031208D3EEFAEF85
:10528300FB900570E0F91219E0790080148518820B
:10529300851983E50CF0791AAA82AB831215067976
:1052A3001A023059F582742F12518DFC7D0022C0F1
:1052B30082C083E9900570F002478874F6120403F4
:1052C30074FE12094EEAFEEBFFEE54207031803A71
:1052D300E5A8F8C2AF900544E0141241E68A828B38
:1052E300831253E99005731253F812151885188227
:1052F300851983E0641560077A737B0512153C7A80
:105303003E7B051219FEEA4B70C6EF548070128083
:105313001C9005731253F81215187A737B05121536
:105323003C900570E0F91219ECEA4B70E4EE54106E
:10533300600E851882851983742D1253FE12151879
:10534300EEA2E0500E85188285198374241253FE51
:10535300121518EE5402600E851882851983742580
:105363001253FE121518EE5404600E851882851927
:105373008374261253FE121518EE5408600E851816
:105383008285198374281253FE121518EE54406057
:10539300107401120B21126370742C1253FE121538
:1053A30018EE548060107401120B21126370742F75
:1053B3001253FE121518900571124FA26021E5A831
:1053C300F8C2AF900571125C46900571E4F0A31228
:1053D30041E61253F71215187A737B0512153C7ABE
:1053E300007B00024F9AE0851882851983F022A37F
:1053F300A3A3A3A3A3EAF0A3EBF022F0AA82AB83B7
:1054030022C082C083900573126528EA687002EB9C
:10541300697007900573E4F0A3F002478874F712EC
:105423000403EAFEEBFFEE4F7003122046A2AFE443
:1054330033F508C2AF8E828F83124FA26028E8240F
:10544300FBFAE934FFFB900573126A23E86C7002E0
:10545300E96D7007900573E4F0A3F08E828F83E407
:10546300F0A3F0121A88E508A2E08004A2E7A2E7FD
:1054730092AF024B76C082C083900A17E064FE703D
:1054830003A3E0F470097C0E7D0A12240080188ABD
:10549300828B83A3A3A3A3A3A3A3A37402F0900A61
:1054A300171254B0124AA902478890054512467C48
:1054B30022C082C083900A21C3E094FEA3E094FF3C
:1054C3004004790380027902024788C082C08312B4
:1054D30056118C828D831255C668703B74026870B6
:1054E3001C8A828B8312551FE068702B8A828B8300
:1054F300A312551FA3E068701E7901801C74036812
:105503007015EC2405FCED3400FDEA2405FAEB34B8
:1055130000FB12240680027900024788A3A3A3A3F9
:10552300A3E0F88C828D83A3A3A3A3A32274F61212
:1055330004037E00740A120B21E01255BAFF8A821B
:105543008B83A3A3A3A3A3A3A3A3E06F7064740299
:105553006F704D8A828B83C082C08388828983A3C4
:10556300A3A3A3A3E0F50888828983A3A3A3A3A38A
:10557300A3E0FBAA08D083D082E06A7003A3E06BA8
:10558300703088828983A3A3A3E0FA88828983A3E6
:10559300A3A3A3E0F9EA6C7002E96D70150E801203
:1055A30074036F700DE82405FCE93400FD12240632
:1055B300E9FEEEF9023D45F8A3E0F98882898312FA
:1055C30055C622A3E01313543F540322C082C08361
:1055D3008A828B83A3A3A3A3A3A3A3A3E0640270E0
:1055E30016900A17125608687003A3E069700479CD
:1055F30001800F7900800BEAFCEBFD7A0E7B0A1227
:1056030023FA02478812652C8A828B83E0228A82DE
:105613008B831255C6F82274EC120403EAFEEBFFE7
:105623008C128D13750A008C828D83A3A3A3A3A36D
:10563300A3A3A3E0F510E9A2E75008750CFF750DCD
:10564300FF8006900A1D123573E9C2E7F511EE24B7
:105653000E123C2C5420600AEE2410123E267408CD
:105663008006EE241012580B12582A5404600712B5
:10567300581374808005125813741012583A600836
:10568300EE241212580B800E900A2AE0C0E0EE249A
:1056930012123E26D0E012582AA2E05003750A20C7
:1056A300540860067410450AF50A8E828F83A3A3FB
:1056B300E024FFF508A3E0123C25C39402E0400B6D
:1056C300640B6005E0141258417403450AF50A851A
:1056D300110E750F00740E780E1209DEE50FF50B2F
:1056E3007414120B2112590574026511700E900A7D
:1056F30022125840900A2112582180137403651115
:1057030070121257FA7C317D0AAA08FB12240C127C
:1057130058078004E5116028E5106014E50E650C58
:105723007004E50F650D70087440450AF50A801092
:10573300850882850983E50D12585DE50C125847EB
:1057430085100C750D00740A780C1209DEE50D4501
:105753000BF50B740265107015851282851383A3F4
:1057630012584085128285138312582180137403C3
:10577300651070121257FAAC12AD13AA08FB12246B
:105783000C1258078004E510601085088285098390
:10579300E50F12585DE50E125847A808A909E82439
:1057A300FFF508E9123C257005900A0D8003900A65
:1057B30019E0FA04F0EA8882898312465AE50B124B
:1057C300585DE50AF0EE2404F8EF3400F912325C78
:1057D300FBAC088A828B83E0F50A88828983E02503
:1057E3000AC39C125BA1ECF0A3E50912699AA3E436
:1057F300F0F97F0C02061DE50824F9F508E50934E4
:10580300FFF5092212585022F582EF12581DE422A7
:10581300EE241112581A22F582EF12464722E08530
:105823000882850983F02212582E22F0EE240EF509
:1058330082EF124647E02212582E541022E08508C8
:105843008285098312584B22F012585022E508240E
:10585300FFF508E50934FFF5092212584B85088244
:10586300F5832274EA120403890C8A0D8C148D15B6
:105873007416120B211265D87418120B21125905D4
:1058830075121A741A120B21E0F50AA3E0F50BAA9C
:105893000AFB1213EC8A108B11AE10AF11EE4F609E
:1058A3005A123E23E50EF0A3E50F123172E50CF018
:1058B300850A10850B1175120078101208BC12327C
:1058C3004F1219B074031208D378081208C0AC142D
:1058D300AD15A90DEEFAEFFB12156074021208D391
:1058E300E9F5127016E50C24F960031470061235FD
:1058F300DFD2E5F0EEFAEFFB121440A9127F0E029D
:10590300061DE0F50EA3E0F50F2274F612040374EE
:10591300F712094EEAFEEBFF7801EE2432123C2C1B
:1059230060027805123E23E812316F740412599510
:10593300122400EE242F125973124AA1EE243112BD
:105943003C2C1259891208C07402120B21AC82AD8F
:105953008379031A1AEFFB12156074021208D3E954
:10596300F5087007EEFAEFFB121440A908023D4058
:1059730012581A1265DC12597D22EE2402F8EF3414
:1059830000F9E8FAE92288828983124ED104F0787B
:105993000822F0EE2426FCEF3400FD8518828519D9
:1059A30083AA82AB832274F31204038A088B09EC63
:1059B300FEEDFF8A828B837405125BBE8A828B8322
:1059C300A3A3F0EA2403F50AEB3400F50B850A825E
:1059D300126526EE2425123E26120AFE12448FE992
:1059E300123E29120B0A125B86E8FAE9FB12240025
:1059F300850A82850B83125F92FAA3E0FB88828972
:105A030083A3A3A31253F2EE242F123C2CC0E01263
:105A130046F8E9123E29D0E0125BAB2415F582E883
:105A230012580E125BAB240EF582E812580E124E7A
:105A3300BF850A82850B83E02416FAA3E03400FBBA
:105A43001215788E828F83A3A3A3A3A3A3A3E0C07D
:105A5300E0850A82850B83E0F8A3125B8FD0E01206
:105A63005B9AFAA3E0FB850A82850B83126528E81B
:105A7300240BFCE93400FD8A828B83E08C828D83C6
:105A8300F0A3E4125BC6E0F50B8C828D83A3E045A3
:105A93000B125BA1A3E0FCA30A0AAB83A2E7E433E6
:105AA300C0E0E8240FF582E9123E29D0E0F0740744
:105AB3005C600478018002780075F00374075CA4CD
:105AC30028F8EA28FAEB3400FBE5082405F8E50991
:105AD3003400F98A828B83123293125BC685088263
:105AE3008509831253F288828983E0F85407C3330C
:105AF300FCE8C4540F5407F50A750B007403780AC5
:105B03001209DEEC250AF8EA28F8EB3400F98508D7
:105B130082850983A3A3A3A3A3A3A3A3A3E8F0A3B9
:105B2300E9124ECDFA8E828F83A3A3E02AFAA3E073
:105B33003400FBC3EA98EB9940308E828F83A3A392
